:1000000001308A0033290000FF00030E8301A100A4
:100010000A08A0008A010408A2007708A300780853
:10002000A4007908A5007A08A600831383120B1E8A
:100030001B288B182C28220884002308F70024088A
:10004000F8002508F9002608FA0020088A00210E89
:100050008300FF0E7F0E09008A110A122F28031752
:100060008C1E64281A080313EB002D3069078400E6
:1000700083136B0880006908033C03185B282D304C
:10008000690784008313000F5B28013069022D3E4D
:1000900084008313000F5B28023069022D3E840028
:1000A0008313000F5B280130EA0003171812831630
:1000B0008B1383120313E90A69081D3C0318622895
:1000C000EA01E90103178C1203138B108A110A123B
:1000D0001B28613464346434203438342C34303494
:1000E0002C3425347534FF34FF34FF3400346F086A
:1000F00003197F286E088000840AEF0B7A28080015
:10010000E901EA01EB012D3084008313EE011E307A
:10011000EF0077204B3084008313EE011E30EF0098
:1001200077208A110A1281296F3084008313000816
:100130000319A7280230F800F701F70B9D28F80BE8
:100140009C289730F700F70BA328800B9A2808000B
:100150007108F80170020318B0287008F700BC2875
:10016000F7010830F200F00DF70D7108770203185F
:10017000F700F80DF20BB32808009F149F18BE2853
:100180001E08EC000130EF009420693003178D0049
:1001900000308F0008300313EE00831603178C170E
:1001A0000C140000000083120D080313EF00031766
:1001B0000F08F0000C0803130C1EDC2899006F08D0
:1001C00003178D0070088F008D0A03198F0A03131F
:1001D000EE0BCD286C08EE001B30EF006E08F0002F
:1001E0006430F100A8207708EE0078083030031D55
:1001F0000029EF1C0829EF1908296F1A203003295C
:10020000EF116F126F14F80778080C1E052999007A
:100210006E08F0000A30F100A8207708EE00780898
:100220003030031D1929EF191E296F1C1E296F1A62
:100230002030F80778080C1E1B2999003030EE0793
:100240006E080C1E21299900FF300C1E25299900EB
:10025000FF300C1E29299900FF300C1E2D29990012
:100260008A110A129829840183131F30830583168B
:10027000031787110C3003139900A23098009030B7
:1002800083129800E901EA01EB01EC01ED0183160C
:1002900003170908C039890003131F129F12003089
:1002A0000317880083128701880189010313A701BE
:1002B000A8010D3083160317850086018030870062
:1002C00088018901831285018801870186018901DE
:1002D00083160908C039890003131F129F120130C9
:1002E00003178800831203131F179F1783169F138A
:1002F00083121F140030F8001F08C33978049F00D0
:100300008028C0308B046430EF009420FF30031746
:10031000860004300313EE00FA30EF009420EE0B59
:100320008C29031786010313EA0803199929BD28AC
:08033000EA01031793296300A1
:04400E00F220FF3F5E
:00000001FF
;PIC16F887
;CRC=565B  CREATED="01-oct.-20 12:02"
