:0400000020EF01F0FC
:1000080000C016F001C015F0E1CF19F0E2CF1AF0E8
:10001800E9CF17F0EACF18F09EAA44D0AECF1BF074
:10002800950EE16E000EE26E5F50E126D8B0E22A2E
:100038001BC0E6FF5F5003082DE2950EE96E000E27
:10004800EA6E5F50E926D8B0EA2AEE50FF0A22E1AC
:100058005F04006E016A000E015A950E0024E96ED5
:10006800000E0120EA6EEE50FF0A14E1020E5F5CFA
:10007800006E016A000E015A950E0024E96E000E0A
:100088000120EA6EEE50FF0A05E1010E0001606FE3
:10009800AB98F29E5F2A5F501E0A03E10001606B75
:1000A8005F6A9E9A16C000F015C001F017C0E9FFFC
:0E00B80018C0EAFF19C0E1FF1AC0E2FF1100F4
:0E00C600ACB202D00000FCD7C3C0ADFF1200E8
:1000D400C3C002F0C4C003F0C6C000F0C7C001F042
:1000E400010E0001C65F000EC75B0050011009E05D
:1000F40002C0E1FF03C0E2FFC5C0E6FF024A032AD3
:0C010400EBD7C3C000F0C4C001F0120033
:100110000001C26BBFC0E9FFC0C0EAFFEECFC1F073
:10012000C151000A0EE0C1C0C3F0CDDF0001C22BF7
:10013000C251BF25E96E000EC021EA6EEECFC1F0BC
:04014000EFD71200E3
:10014400BFC0F6FFC0C0F7FFC1C0F8FF0900F5CF7C
:1001540000F0005211E0BFC0F6FFC0C0F7FFC1C0FD
:10016400F8FF0900F5CFC3F0ACDF010E0001BF2793
:0A017400000EC023C123E4D71200DF
:10017E0000016051010A0FE1950EC36F000EC46FAE
:10018E00C56B1E0EC66F000EC76F9DDF5F6A606B7C
:08019E009E9AAB88F28E12005C
:1001A600C60E0001B36F000EB46FC30EB56F000E1E
:1001B600B66FFF0EB76FFF0EB86F000EB96F000E69
:1001C600BA6FFF0EBB6FFF0EBC6F000EBD6F000E49
:1001D600BE6FFF0E736FFF0E746F000E756F000E0D
:1001E600766FAC8A900EAB6E948E949C9EAA03D0CA
:0801F600AECF00F0FBD71200B0
:1001FE000900F5CFE6FF0006FBE10106F9E112006A
:10020E005F6A0001606B1B6A950EC36F000EC46FB0
:10021E00C56B1E0EC66F000EC76F55DF770EC36F10
:10022E00000EC46FC56B1E0EC66F000EC76F4BDF80
:02023E001200AC
:10024000E4EC01F00D0E926E936A800E946E956A46
:10025000966A806A836A826A816A846A5F6A000138
:10026000606BD5DF670EAF6EAC849DDF770EC36F1A
:10027000000EC46FC56B1E0EC66F000EC76F2ADF5F
:100280009E9A9D8AF28CF28E00016051010A01E172
:1002900076DF4E0EBF6F000EC06F3ADFC00EBF6F2D
:1002A000030EC06F000EC16F4DDF030E0B6E080E04
:1002B0000C6E770E0D6E0D2EFED70C2EFCD70B2E6E
:1002C000FAD71C0E0001BF6F000EC06F21DFC40EF5
:1002D000BF6F030EC06F000EC16F34DF150E0B6EC3
:1002E0004B0E0C6EBE0E0D6E0D2EFED70C2EFCD7D7
:1002F0000B2EFAD700003B0E0001BF6F000EC06F3F
:1003000007DFBC0EBF6F030EC06F000EC16F1ADF98
:10031000030E0B6E080E0C6E770E0D6E0D2EFED7B3
:100320000C2EFCD70B2EFAD7610E0001BF6F000E0A
:10033000C06FEEDEB80EBF6F030EC06F000EC16F50
:1003400001DF150E0B6E4B0E0C6EBE0E0D6E0D2EDC
:10035000FED70C2EFCD70B2EFAD7000095D7FFD76F
:1003C80010EE1BF0580E006E010E016E600EF66EF8
:0E03D800030EF76E000EF86EFFEC00F0120040
:01036000009C
:1003610070616765302E726376312E7478743D2228
:0F037100486F6C6120776F726C64203A762200BF
:1003800070616765302E726376312E7478743D2209
:0303900020220028
:1003930070616765302E726376322E76616C3D3004
:0103A3000059
:0103A4000058
:0103A5000057
:1003A60070616765302E726376322E76616C3D35EC
:0203B600300015
:0403B800FFFFFF0044
:0403BC00FFFFFF0040
:0403C000FFFFFF003C
:0403C400FFFFFF0038
:020000040030CA
:0D000100220D0EFFFF80FF0FC00FE00F402B
:00000001FF
