:020000006C2969
:0E000600213083120313FD00FD0B07280800B4
:06001400000000000800DE
:10001A000F3083120313FC004730FD00FD0B132839
:0A002A00FC0B132800000000080082
:1000340083160313AA1B2128831206112328831273
:10004400061583162A1B2928831286112B2883124E
:1000540086158316AA1A31288312061233288312AE
:10006400061683162A1A3928831286123B2883120D
:100074008616831623184128831286174328831271
:10008400861306170A2006138316AA194C2883120E
:1000940006114E288312061583162A195428831232
:1000A40086115628831286158316AA185C28831293
:1000B40006125E288312061683162A1864288312F1
:1000C4008612662883128616831623186C288312D8
:1000D40086176E288312861306170A2006138316C2
:0C00E400231C76280D207728032008003C
:1000F0008316031323102908AA001A208316231439
:020100000800F5
:100102008316031398188728000081282908831270
:040112009900080048
:0E011600831203136F088A006E08820008002F
:10012400FF3083160313A000FF30A100FF30A200AC
:10013400FF30C33083129F05C0309F004C09F0008C
:0E014400700883169F059F1783121F14080072
:10015200BB28803083160313A500CE28C030A5002B
:10016200CE289430A500CE28D430A500CE288030E9
:10017200A500CE28831603132508013A0319AA28DD
:100182002508023A0319AF282508033A0319B228B1
:100192002508043A0319B528B8282603F0002508D3
:1001A200F0077008A5007008AA001A208316231011
:1001B200A80128082707840000080319E82828084E
:1001C200270784000008A9007820A80ADA28231447
:0201D200080023
:1001D400831603130613861386120612861106115C
:1001E40083120613861306118611061286120D2039
:1001F4000D200D200616861606170A2006130D205C
:1002040006170A2006130D2006170A2006130D20D0
:10021400861206170A2006130D2006170A20061355
:100224000612061506170A2006130D200611861657
:1002340006170A200613861206170A2006130D2035
:1002440006170A200613861606170A2006130D2021
:10025400861206170A200613061586150616861634
:0E02640006170A2006130D2083162314080027
:100272008B208A110A128000840AEE0A0319EF0AFF
:08028200F003031D39290800F7
:10028A0083160313981690308312980083168717E3
:10029A00071383128C1E54291A08F0004E290800ED
:1002AA0083160313A701250884000008A600260860
:1002BA00003A03196B292608A90081208316A70A88
:0E02CA002708250784000008A6005C2908000C
:1002D8008822FF3083160317880089010D30031325
:1002E8008500873087008312860133308316990092
:1002F800181545210230FB000430FC00BA30FD001F
:10030800FD0B8429FC0B8429FB0B84290000203079
:100318008316A5005521EA200130AA001A200C30C6
:100328008316AA001A2001308316A5000130A60002
:100338002630A700A9209220071CC22900303806C1
:10034800031DA82900303706031DC2290130B70054
:100358000030B8004D308316A4000130A5000130EC
:10036800A6002408A700A9203430FC00F130FD00C5
:10037800FD0BBC29FC0BBC290000000083120718E8
:10038800CF2900303806031DCB2901303706031D5D
:10039800CF29B701B801871CF62900306D06031D67
:1003A800D72900306C06031DF6290130EC00003017
:1003B800ED0001308316A5000230A6005D30A700CD
:1003C800A9200230A5000130A6002408A700A92012
:1003D8003430FC00F130FD00FD0BF029FC0BF02956
:1003E8000000000083128718032A00306D06031DE1
:1003F800FF2901306C06031D032AEC01ED01071DDE
:10040800252A00304B06031D0B2A00304A06031D1F
:10041800252A0130CA000030CB0039308316A400E9
:100428000130A5000130A6002408A700A920343017
:10043800FC00F130FD00FD0B1F2AFC0B1F2A0000F9
:10044800000083120719322A00304B06031D2E2A9A
:1004580001304A06031D322ACA01CB01A029332ADA
:10051000203084004E3083120313F0003930EE0097
:080520000230EF003921080050
:0C04720053347434613472347434003438
:10047E00503472346F3479346534633474346F3479
:10048E00203449346E3474346534673472342E3407
:02049E00003428
:0404A00000340034F0
:1004A4004D346F34733474347234613472342034A0
:1004B4006D34753465347334743472346134733424
:0204C400003402
:0404C60000340034CA
:0204CA003034CC
:1004CC004D347534653473347434723465346F342C
:1004DC0058347434693465346D3470346F3400348A
:1004EC004F347034633469346F346E342034733465
:0E04FC0065346C346534633463342E3400345C
:04050A000034003485
:04400E00F22F000786
:00000001FF
