:020000002B2DA6
:10000800FF00030E83010317B6000A08B5008A0132
:1000180070080313A3007108A2007208A1007308F6
:10002800A0000B1D812803172308F0002408F10005
:100038002508F2002608F300F00A0319F10A03194B
:10004800F20A0319F30A7008A3007108A4007208E1
:10005800A5007308A6000B11063081002608003C95
:10006800031D40282508003C031D40282408033CA4
:10007800031D40282308E83C031860280313580888
:10008800F0005908F1005A08F2005B08F300F00A82
:100098000319F10A0319F20A0319F30A7008D800C0
:1000A8007108D9007208DA007308DB0026250317E7
:1000B800A301A401A501A601003083160313ED1BBB
:1000C800FF30F00083125B06031D772870085A067C
:1000D800031D772883166D0883125906031D772898
:1000E800580883166C06031D812802308312860681
:1000F80083168101831281018B0183122308F0008A
:100108002208F1002108F2002008F300031735083F
:0C0118008A00360E8300FF0E7F0E0900E7
:06012400000000000800CD
:10012A000F3083120313FC004730FD00FD0B9B28A0
:0A013A00FC0B9B28000000000800E9
:0E014400213083120313FD00FD0BA6280800D6
:1001520083120317C21BAF280611B0280615421BD3
:10016200B4288611B5288615C21AB9280612BA28EB
:100172000616421ABE288612BF28861603136F1867
:10018200C4288617C528861306179220061303175C
:10019200C219CD280611CE2806154219D228861179
:1001A200D3288615C218D7280612D8280616421850
:1001B200DC288612DD28861603136F18E2288617BC
:1001C200E32886130617922006136F1CEA2895204F
:0601D200EB28A22008004A
:1001D80083120313FB01FA01F9018030F800F10CD6
:1001E800F00C031C00297408F90775080318750F2B
:1001F800FA070318FB0A0310F01F08297408FA0706
:1002080075080318750FFB07FB0CFA0CF90CF80CB2
:10021800031CF3287B08F3007A08F2007908F10040
:060228007808F000080058
:10022E002929803083120317BF003C29C030BF003C
:10023E003C299430BF003C29D430BF003C2980308B
:10024E00BF003C29831203173F08013A03191829EE
:10025E003F08023A03191D293F08033A03192029C2
:10026E003F08043A0319232926294003F0003F08CA
:10027E00F0077008BF0003136F1470080317C20055
:10028E00A9206F1003174108C200A9206F1408009F
:10029E00831203136F1003173F08C200A9206F14B7
:0202AE00080046
:1002B0006A29803083120317BB007D29C030BB0040
:1002C0007D299430BB007D29D430BB007D2980304E
:1002D000BB007D29831203173B08013A03195929F2
:1002E0003B08023A03195E293B08033A03196129C6
:1002F0003B08043A0319642967293C03F0003B08D2
:10030000F0077008BB007008C200A9206F10031727
:10031000BE013E083D0784000008031998293E08E5
:100320003D0784000008BF004F210317BE0A89293A
:0603300003136F14080026
:0E0336008312031738088A0037088200080077
:10034400831203173B088D0083168C130C1483123D
:060354000C08F000080097
:10035A00831203172908303EF10000300318013ECA
:10036A002A07F2007108AB007208AC00003072066E
:10037A00031DC1293A307106031DD629A901AA0114
:10038A0000303006031DCB2900302F06031DD32968
:10039A00AD01AE010130AF000030B000AD0A031963
:1003AA00AE0A00302C06031DDC292F302B06031D54
:1003BA00F8290930A9000030AA0000303006031DD0
:1003CA00E82901302F06031DF8290130AD02031C6C
:1003DA00AE0300302E06031DF42900302D06031D3E
:1003EA00F829AF01B00100303006031DFE290130A3
:1003FA002F060319042AF030AD00FF30AE009D2A03
:10040A000130BF000D30C00030302D07C100172168
:10041A0001300317BF000E30C0002908303EC1006A
:10042A001721FF3003172E06031D1D2AF0302D0653
:10043A00031D212AAD01AE012D08F0002E08F1009E
:10044A000A30F4000030F500EC2003172908700781
:10045A000313BB0071080318013E03172A0703138D
:10046A00BC00B62A02300317BF000530C000303086
:10047A002D07C100172102300317BF000630C00044
:10048A002908303EC1001721FF3003172E06031D2D
:10049A00502AF0302D06031D542AAD01AE012D0855
:1004AA00F0002E08F1000A30F4000030F500EC20CC
:1004BA000317290870070313BD0071080318013ECA
:1004CA0003172A070313BE00B62A02300317BF0018
:1004DA000D30C00030302D07C1001721023003173C
:1004EA00BF000E30C0002908303EC1001721FF307E
:1004FA0003172E06031D832AF0302D06031D872AB3
:10050A00AD01AE012D08F0002E08F1000A30F4000A
:10051A000030F500EC200317290870070313B9000F
:10052A0071080318013E03172A070313BA00B62AF3
:10053A00003003173C06031DA42A01303B060319A9
:10054A00052A00303C06031DAC2A02303B0603197B
:10055A00372A00303C06031DB42A03303B06031930
:10056A006A2A0230FB000430FC00BA30FD00FD0BA1
:0E057A00BC2AFC0BBC2AFB0BBC2A00000800AC
:1005880083120313A401A501AF01B001D201D30165
:100598008316EE01EF0183120317A701A801A90131
:1005A800AA01A301A401A501A6019F01A001A1011F
:1005B800A2010313D801D901DA01DB01B901BA019B
:1005C800BD01BE01BB01BC01D001D1010317AD01C2
:1005D800AE01AB01AC010313ED01EE018316EC0192
:1005E800ED018312EB01EC010317AF01B001080024
:1005F800013083120313D0000030D1000317AF017C
:10060800B0010130C200A92001300317BB0001303E
:10061800BC003F30BD0058218230FC00DD30FD00B9
:10062800FD0B142BFC0B142B0000000001300317EA
:10063800BB000930BC004830BD0058218230FC00A6
:10064800DD30FD00FD0B262BFC0B262B00000000E7
:1006580002300317BB000130BC003130BD00582107
:100668008230FC00DD30FD00FD0B382BFC0B382BF5
:100678000000000002300317BB000930BC00263020
:10068800BD0058218230FC00DD30FD00FD0B4A2BF7
:10069800FC0B4A2B000000000317A901AA01003037
:1006A80003135106031D5A2B043050060319D52B8A
:1006B800071C772B00302506031D642B0030240609
:1006C800031D772B0130A4000030A5000317A90AE9
:1006D8000319AA0A031350080317BB000313510890
:1006E8000317BC00AD21831203130718852B0030B4
:1006F8002506031D812B01302406031D852BA4012B
:10070800A501871C9D2B00303006031D8D2B003062
:100718002F06031D9D2BD00A0319D10A0130AF0003
:100728000030B0000317AD01AE01A901AA01AF0165
:10073800B00103138718AA2B00303006031DA62B1F
:1007480001302F06031DAA2BAF01B001071DC62BD0
:1007580000305306031DB22B00305206031DC62B72
:100768000130D2000030D30001300317A902031C66
:10077800AA03031350080317BB00031351080317F8
:10078800BC00AD21831203130719D42B0030530684
:10079800031DD02B01305206031DD42BD201D301E7
:1007A800532B3B08F0003C08F1006830F40001309E
:1007B800F500EC2070080317B9007108BA0003139C
:1007C8003D08F0003E08F1003C30F4000030F50030
:1007D800EC2070080317390783160313EC00831203
:1007E80003173A080318013E710783160313ED0037
:1007F800831239088316EC0783123A080318013E5E
:060808008316ED07080055
:10080E00013083120317BB000130BC001030BD0055
:10081E0058210430FB000C30FC003330FD00FD0B82
:10082E00162CFC0B162CFB0B162C0000000083164E
:10083E00EC01ED018312ED01EE010130EB00003011
:10084E00EC0006300317A300A401A501A601803019
:10085E0003136E06F000803083166D067002031DC2
:10086E003B2C6C0883126D020318AA2C83126B08A2
:10087E000317BB00A2217008A700A8010313EB0AFF
:10088E000319EC0A003003172806031D502C0730FD
:10089E00270603195A2C0230BF002308C000270870
:1008AE00C1001721622C02300317BF002308C000BD
:1008BE002E30C100172103172308F0002408F10081
:1008CE002508F2002608F300F00A0319F10A0319AD
:1008DE00F20A0319F30A7008A3007108A400720843
:1008EE00A5007308A60000302806031D802C2A30B0
:1008FE002706031DA92C0313ED0A0319EE0A563021
:10090E000317BF004F2106300317A300A401A50152
:10091E00A6010B30FB002630FC005D30FD00FD0B08
:10092E00962CFC0B962CFB0B962C00000000013035
:10093E00C200A92001300317BB000130BC003408EF
:08094E00BD0058212E2C080009
:100956008230831603138100063083128100A03093
:040966008B000800FA
:10096A00FF3083120317B100FF30B200FF30B3002B
:10097A00FF30C33003139F05C0309F002E09F000DB
:0E098A00700883169F059F1783121F14080024
:100998008316031306138613861206128611061190
:1009A80083120613861306118611061286129520E5
:1009B8009520952006168616061792200613952070
:1009C80006179220061395200617922006139520E5
:1009D80086120617922006139520061792200613F2
:1009E800061206150617922006139520061186167C
:1009F80006179220061386120617922006139520D2
:100A080006179220061386160617922006139520BD
:100A180086120617922006130615861506168616E0
:0C0A280006179220061395206F1408009A
:100A34009B218A110A128000840AB70A0319B80A92
:080A4400F003031D1A2D080048
:0A0A4C000130831203138606080030
:100A56007627FF3083160317880089010D300313AC
:100A660085008730870006108610831286010230C3
:100A7600FB000430FC00BA30FD00FD0B402DFC0BE2
:100A8600402DFB0B402D0000CC2401300317C20083
:100A9600A9200C300317C200A92001300317BF009C
:100AA6000130C0005030C100172172300317BF005B
:100AB6004F216F300317BF004F2179300317BF0056
:100AC6004F2165300317BF004F2163300317BF0066
:100AD6004F2174300317BF004F216F300317BF003B
:100AE6004F210630FB001330FC00AD30FD00FD0B3E
:100AF6007A2DFC0B7A2DFB0B7A2D00000000B52415
:100B0600071CAF2D00302506031D8B2D0030240653
:100B1600031DAF2D0130A4000030A500013083165F
:100B2600EE000030EF00DD3083120317B400023010
:100B3600BB000130BC003408BD0058210630FB0064
:100B46001330FC00AD30FD00FD0BA72DFC0BA72DCF
:100B5600FB0BA72D000000000718BB2D0030250653
:100B6600031DB72D01302406031DBB2DA401A501CD
:100B7600871CC92D00303006031DC32D00302F06FB
:100B8600031DC92D0130AF000030B0008718D72DE6
:100B960000303006031DD12D01302F06031DD72D41
:100BA6000130AF000030B000071D012E00305306A3
:100BB600031DDF2D00305206031D012E0130D20029
:100BC6000030D30002308316EE000030EF00023012
:100BD60083120317BB000130BC005C30BD005821F6
:100BE6000630FB001330FC00AD30FD00FD0BF92D87
:100BF600FC0BF92DFB0BF92D0000000007190D2E3B
:100C060000305306031D092E01305206031D0D2E1A
:100C1600D201D30100303006031D132E01302F06FA
:100C2600031DB32E003083166F06031D1C2E0130E4
:100C36006E06031D702EFC22AB2401300317C20082
:100C4600A92001300317BB000330BC00A030BD0053
:100C5600582102300317BB000730BC005430BD00DA
:100C6600582100308316ED1BFF3083125B02031DF3
:100C76004E2E00308316ED1BFF3083125A02031DE1
:100C86004E2E83166D0883125902031D4E2E8316AF
:100C96006C08831258020318512E342E01300317A4
:100CA600C200A92001300317BB000130BC00AC30E4
:100CB600BD0058218230FC00DD30FD00FD0B612EA9
:100CC600FC0B612E0000000002300317BB00013050
:100CD600BC00CE30BD005821992E003083166F0619
:100CE600031D772E02306E06031D992E0724013050
:100CF60083120317C200A92001300317BB0001307D
:100D0600BC00D730BD0058218230FC00DD30FD002C
:100D1600FD0B8B2EFC0B8B2E000000000230031700
:100D2600BB000130BC00B530BD0058210630FB00C9
:100D36001330FC00AD30FD00FD0B9F2EFC0B9F2EEB
:100D4600FB0B9F2E00000000C4220130C200A92028
:100D560001300317BB000130BC00BE30BD00582176
:040D6600832DB42EF7
:100EEC0024308400473083120313F00006300317BC
:100EFC00B7000730B8001A25A03084004C3003131B
:100F0C00F000BA300317B7000630B8001A256B3062
:100F1C00840004300313F0006E300317B700073061
:100F2C00B8001A25EC30840002300313F000743042
:100F3C000317B7000730B8001A2510308317840048
:100F4C0013300313F0004D300317B7000730B8000F
:100F5C001A258313EE30840002300313F000723034
:100F6C000317B7000730B8001A2523308317840005
:100F7C000E300313F00060300317B7000730B800D1
:060F8C001A258313080082
:100D74004D34753465347334743472346534613489
:080D84006E3464346F34003456
:100D8C006D347534653473347434723465346F3443
:020D9C00003421
:100D9E0063346F346D3470346C3465347434613450
:020DAE0000340F
:100DB000503472346F3479346534633474346F343E
:100DC000203449346E3474346534673472340034FA
:100DD00063346F346D3470346C34653474346F3410
:020DE0000034DD
:0C0DE200763469347334743461340034A6
:100DEE00533461346D3470346C3465342034623471
:0E0DFE0079342034743469346D346534003433
:040E0C00003400347A
:100E10005334653467345B34203420345D3400341B
:020E200030346C
:040E22000034003464
:100E26004D3469346E345B34203420345D34003400
:040E36000034003450
:040E3A00003400344C
:040E3E000034003448
:100E42005434693465346D3470346F343A34203438
:020E520000346A
:100E54004834723473345B34203420345D340034C9
:040E64000034003422
:040E6800003400341E
:080E6C002E342E342E34003424
:080E74000034003400340034A6
:100E7C0056346934653477342034733461346D34CA
:0E0E8C0070346C3465347334203420340034F8
:100E9A004D346F3473347434723461346E34643460
:0E0EAA006F34203464346134743461340034A5
:080EB800003400340034003462
:080EC00000340034003400345A
:040EC80000340034BE
:040ECC0000340034BA
:040ED00000340034B6
:040ED40000340034B2
:040ED80000340034AE
:040EDC0000340034AA
:040EE00000340034A6
:040EE40000340034A2
:040EE800003400349E
:04400E00F220000795
:00000001FF
