:02000000712D60
:10000800FF00030E83018316EE000A08ED008A0143
:1000180070088312A3007108A2007208A100730877
:10002800A0000B1D7E2883164D08F0004E08F10035
:100038004F08F2005008F300F00A0319F10A0319F7
:10004800F20A0319F30A7008CD007108CE0072088D
:10005800CF007308D0000B1106308312810083167D
:100068005008003C031D42284F08003C031D42284D
:100078004E08033C031D42284D08E83C031863283A
:1000880083126408F0006508F1006608F20067084A
:10009800F300F00A0319F10A0319F20A0319F30A23
:1000A8007008E4007108E5007208E6007308E700CC
:1000B800013086068316CD01CE01CF01D001003074
:1000C8008312E91BFF30F0006706031D75287008CE
:1000D8006606031D752869086506031D75286408EA
:1000E8006806031D7E280230860683168101831266
:1000F80081018B012308F0002208F1002108F20099
:100108002008F30083166D088A006E0E8300FF0E28
:040118007F0E09004D
:06011C00000000000800D5
:100122000F3083120313FC004730FD00FD0B9728AC
:0A013200FC0B9728000000000800F5
:0E013C00213083120313FD00FD0BA2280800E2
:10014A0083120317AB1BAB280611AC2806152B1B11
:10015A00B0288611B1288615AB1AB5280612B6281A
:10016A0006162B1ABA288612BB288616831603137C
:10017A006F18C22883128617C4288312861306179B
:10018A008E2006130317AB19CC280611CD280615A5
:10019A002B19D1288611D2288615AB18D628061213
:1001AA00D72806162B18DB288612DC288616831613
:1001BA0003136F18E32883128617E5288312861320
:1001CA0006178E20061383166F1CED289120EE2841
:0401DA009E2008005B
:1001DE00831603136F10831203172808AB00A52094
:0601EE0083166F140800E7
:1001F40083120313FB01FA01F9018030F800F10CBA
:10020400F00C031C0E297408F90775080318750F00
:10021400FA070318FB0A0310F01F16297408FA07DB
:1002240075080318750FFB07FB0CFA0CF90CF80C96
:10023400031C01297B08F3007A08F2007908F10015
:060244007808F00008003C
:10024A003729803083120317A8004A29C030A80032
:10025A004A299430A8004A29D430A8004A29803073
:10026A00A8004A29831203172808013A03192629E4
:10027A002808023A03192B292808033A03192E29B8
:10028A002808043A0319312934292903F0002808D7
:10029A00F0077008A800831603136F1470088312FE
:1002AA000317AB00A52083166F10831203172A08C1
:0A02BA00AB00A52083166F140800A6
:0E02C400831603136C088A006B088200080082
:1002D200831203135008303EF10000300318013E30
:1002E2005107F2007108D2007208D3000030720682
:1002F200031D7D293A307106031D9229D001D101D7
:1003020000304F06031D872900304E06031D8F293A
:10031200D401D5010130CE000030CF00D40A031938
:10032200D50A00305306031D98292F305206031DAB
:10033200B4290930D0000030D10000304F06031D2F
:10034200A42901304E06031DB4290130D402031C36
:10035200D50300305506031DB02900305406031D95
:10036200B429CE01CF0100304F06031DBA29013056
:100372004E060319C029F030D400FF30D5005D2AA3
:1003820001300317A8000D30A900303003135407C1
:100392000317AA002521013083120317A8000E308B
:1003A200A90003135008303E0317AA002521FF308D
:1003B20083125506031DDF29F0305406031DE3297D
:1003C200D401D5015408F0005508F1000A30F400B8
:1003D2000030F500FA2050087007DA00710803189F
:1003E200013E5107DB00762A02300317A8000530D0
:1003F200A9003030031354070317AA002521023045
:1004020083120317A8000630A90003135008303ED8
:100412000317AA002521FF3083125506031D132A54
:10042200F0305406031D172AD401D5015408F000F8
:100432005508F1000A30F4000030F500FA205008A7
:100442007007D80071080318013E5107D900762AB7
:1004520002300317A8000D30A900303003135407EF
:100462000317AA002521023083120317A8000E30B9
:10047200A90003135008303E0317AA002521FF30BC
:1004820083125506031D472AF0305406031D4B2ADA
:10049200D401D5015408F0005508F1000A30F400E7
:1004A2000030F500FA2050087007D60071080318D2
:1004B200013E5107D700762A003003172506031D97
:1004C200642A013024060319C12900302506031DC0
:1004D2006C2A023024060319F52900302506031D73
:1004E200742A033024060319292A0330FB0008303A
:1004F200FC007730FD00FD0B7C2AFC0B7C2AFB0BF9
:040502007C2A080047
:10050600952A803083120317A400A82AC030A400BD
:10051600A82A9430A400A82AD430A400A82A80309F
:10052600A400A82A831203172408013A0319842A6F
:100536002408023A0319892A2408033A03198C2A43
:100546002408043A03198F2A922A2503F000240866
:10055600F0077008A4007008AB00A52083166F1082
:1005660083120317A701270826078400000803192A
:10057600C62A2708260784000008A800EF20831251
:0E0586000317A70AB62A831603136F14080082
:100594008312031724088D0083168C130C14831202
:0605A4000C08F000080045
:1005AA00831603178C1CDB2A0000D52A8312220823
:1005BA008D0023088C0083168C130C150B08F00091
:1005CA008B1355308D00AA308D008C14F01BEF2A46
:0A05DA008B13F02A8B170C11080098
:1005E4008230831603138100063083128100A03009
:0405F4008B00080070
:1005F80083120313E401E501E601E7018316C00154
:10060800C101CB01CC018312EA01EB01EE01EF013C
:100618008316D701D8018312E801E901D001D1017D
:100628008316CD01CE01CF01D001D101D201D30172
:08063800D401D501D601080030
:10064000FF30831203179B00FF309C00FF309D009A
:10065000FF30C33003139F05C0309F008316590934
:0E066000F00070089F059F1783121F140800FA
:10066E00013083120317990000309A0001309E006A
:10067E0000309F000130A0000030A1000130AB001F
:10068E00A5208030F000803003171A067002031D7B
:10069E00522B1908043C031CBB2B8030F000803019
:1006AE001F067002031D5D2B1E08053C031CA02BAC
:1006BE0000301F06031D652B02301E06031D7A2B0C
:1006CE000230A4001E08043EA500DC30A6008322E2
:1006DE008230FC00DD30FD00FD0B732BFC0B732B09
:1006EE00000000009A2B831203172008A400CA22D0
:1006FE007008303EAA000230A8001E08043EA90071
:10070E0025210230FB000430FC00BA30FD00FD0B49
:10071E008E2BFC0B8E2BFB0B8E2B000083120317E4
:10072E00A00A0319A10A831203179E0A03199F0A2E
:10073E00542B0230A4000A30A500DA30A600832222
:10074E000630FB001330FC00AD30FD00FD0BAD2B71
:10075E00FC0BAD2BFB0BAD2B00000000831203171F
:0A076E00990A03199A0A482B0800A3
:1007780062218A110A128000840AEB0A0319EC0A22
:08078800F003031DBC2B080067
:1007900083160313981690308312980083168717D8
:1007A000071383128C1ED72B1A08F000D12B0800D8
:1007B000013083120317AB00A5200C300317AB00E8
:1007C000A52001300317A4000130A5002430A600A5
:1007D00083220630FB001330FC00AD30FD00FD0B22
:1007E000EF2BFC0BEF2BFB0BEF2B000000000800A6
:1007F000013083120313B5000030B600CE01CF01E3
:1008000001300317AB00A5208230FC00DD30FD0075
:10081000FD0B082CFC0B082C000000000130031716
:10082000A4000130A5004730A60083228230FC00DE
:10083000DD30FD00FD0B1A2CFC0B1A2C0000000013
:10084000013083120317A4000930A5003F30A60031
:1008500083228230FC00DD30FD00FD0B2D2CFC0BD3
:100860002D2C00000000023083120317A400013079
:10087000A5003730A60083228230FC00DD30FD0069
:10088000FD0B402CFC0B402C0000000002308312BA
:100890000317A4000930A5005C30A6008322823033
:1008A000FC00DD30FD00FD0B532CFC0B532C000035
:1008B00000008312D001D10100303606031D622CE6
:1008C000043035060319F72C071C8B2C00308316D7
:1008D0004106031D6D2C00304006031D8B2C01309A
:1008E000C0000030C1008312D00A0319D10A3508B4
:1008F0000317A400031336080317A50069218230EB
:1009000083120313FC00DD30FD00FD0B852CFC0B76
:10091000852C0000000083120718992C00308316E4
:100920004106031D952C01304006031D992CC00182
:10093000C1018312871CB52C003083164C06031DA1
:10094000A32C00304B06031DB52C8312B50A0319E6
:10095000B60A01308316CB000030CC008312D401DC
:10096000D501D001D101CE01CF0183128718C32C4C
:10097000003083164C06031DBF2C01304B06031DAF
:10098000C32CCB01CC018312071DEA2C00306B066F
:10099000031DCC2C00306A06031DEA2C0130EA004E
:1009A0000030EB000130D002031CD10335080317DF
:1009B000A400031336080317A500692182308312AF
:1009C0000313FC00DD30FD00FD0BE42CFC0BE42CDC
:1009D000000000000719F62C00306B06031DF22CF6
:1009E00001306A06031DF62CEA01EB015C2C5A0863
:1009F000F0005B08F1006830F4000130F500FA20E7
:100A000070080317A2007108A30003135808F00030
:100A10005908F1003C30F4000030F500FA2070086D
:100A2000031722070313E800031723080318013EE6
:100A300071070313E9005608E80757080318013E39
:040A4000E9070800BA
:100A440083160313061386138612061286110611E3
:100A5400831206138613061186110612861291203C
:100A6400912091200616861606178E2006139120D3
:100A740006178E200613912006178E200613912048
:100A8400861206178E200613912006178E20061351
:100A94000612061506178E200613912006118616D7
:100AA40006178E200613861206178E200613912031
:100AB40006178E200613861606178E20061391201D
:100AC400861206178E200613061586150616861638
:0E0AD40006178E200613912083166F1408005B
:100AE200BA27FF3083160317880089010D300313DC
:100AF20085008730870088018312880183160610DB
:100B02008610831286013330831699001815C82384
:100B12000230FB000430FC00BA30FD00FD0B8F2DCB
:100B2200FC0B8F2DFB0B8F2D000022250130831231
:100B32000317AB00A520D82320238312071CC92D3D
:100B4200003083164106031DA82D00304006031D08
:100B5200C92D0130C0000030C10001308312EE0007
:100B62000030EF0002300317A4000130A500A030CE
:100B7200A60083220630FB001330FC00AD30FD00DE
:100B8200FD0BC12DFC0BC12DFB0BC12D0000000084
:100B920083120718D72D003083164106031DD32D6B
:100BA20001304006031DD72DC001C1018312871CED
:100BB200F62D003083164C06031DE12D00304B0646
:100BC200031DF62D0130CB000030CC000130831222
:100BD2000317AB00A5203430FC00F130FD00FD0B03
:100BE200F02DFC0BF02D0000000083128718062E5A
:100BF200003083164C06031D002E01304B06031DE8
:100C0200062E0130CB000030CC008312071D2F2EA0
:100C120000306B06031D0F2E00306A06031D2F2EB7
:100C22000130EA000030EB000230EE000030EF004D
:100C320002300317A4000130A500AA30A6008322C7
:100C42000630FB001330FC00AD30FD00FD0B272EFB
:100C5200FC0B272EFB0B272E000000008312071926
:100C62003C2E00306B06031D382E01306A06031D30
:100C72003C2EEA01EB01003083164C06031D432E85
:100C820001304B06031D132F003083126F06031D24
:100C92004C2E01306E06031DDE2EF823F2220530A3
:100CA200EC000030ED0083120030E91BFF306702D8
:100CB200031D672E0030E91BFF306602031D672EFD
:100CC20069086502031D672E680864020318822EF4
:100CD20001300317AB00A52001300317A400013037
:100CE200A500B530A60083220330FB000830FC00CB
:100CF2007730FD00FD0B7B2EFC0B7B2EFB0B7B2E3E
:100D0200542E83160130EA008030103AF000803011
:100D12006A067002031C9B2E6A0883120317A20044
:100D2200831603136A0883120317A300D522031341
:100D3200EA0A852E83120317A2010430A300D522EA
:100D420001308312AB00A5200330FB000830FC0009
:100D52007730FD00FD0BAB2EFC0BAB2EFB0BAB2E4D
:100D620001300317A4000130A500C230A60083227F
:100D72008230FC00DD30FD00FD0BBD2EFC0BBD2ED4
:100D820000000000023083120317A4000130A50006
:100D9200DE30A60083220430FB000C30FC0033302E
:100DA200FD00FD0BD22EFC0BD22EFB0BD22E00002F
:100DB2000000831206108610112F00306F06031DEB
:100DC200E42E02306E06031D112F37230130AB00D3
:100DD200A5200330FB000830FC007730FD00FD0B3E
:100DE200F02EFC0BF02EFB0BF02E01300317A400AB
:100DF2000130A500E430A60083228230FC00DD3001
:100E0200FD00FD0B022FFC0B022F00000000023040
:100E120083120317A4000130A5001030A60083221C
:080E2200FC22D8239E2D142FA1
:100F7400243084004C3083120313F0001A3083169B
:100F8400EB000730EC00BC23A03084004A30F000B2
:100F940066308316EB000730EC00BC231030831757
:100FA40084000930F000B0308316EB000730EC0009
:060FB400BC2383130800BA
:100E3400703472346F3479346534633474342D34DB
:100E44006D347534653473347434723465346F348A
:020E5400003468
:040E56000034003430
:100E5A006D3469346E345B34203420345D340034AC
:100E6A006834723473345B34203420345D34003493
:0E0E7A00743469346D3465343A3420340034F5
:040E880000340034FE
:040E8C0000340034FA
:040E900000340034F6
:040E940000340034F2
:040E980000340034EE
:040E9C0000340034EA
:040EA00000340034E6
:100EA4007334653467345B34203420345D34003467
:080EB400003400340034003466
:040EBC0000340034CA
:040EC00000340034C6
:040EC40000340034C2
:040EC80000340034BE
:100ECC006D34753465347334743472346534613410
:040EDC007234003438
:100EE000763469347334753461346C3469347A34EB
:060EF0006134723400348D
:100EF600743472346134623461346A3461346E3409
:060F060064346F34003476
:040F0C000034003479
:100F10006D347534653473347434723465346F34BD
:020F200000349B
:040F22000034003463
:080F26000034003400340034F3
:080F2E000034003400340034EB
:040F3600003400344F
:040F3A00003400344B
:020F3E0030344D
:040F400056340034EF
:040F44002E34003413
:0C0F48006C346934733474346F3400343A
:0C0F540076346934733474346134003432
:100F600063346F346D3470346C346534743461348C
:020F700000344B
:04400E00F22F000786
:00000001FF
