:0200000049298C
:0E000600213083120313FD00FD0B07280800B4
:06001400000000000800DE
:10001A000F3083120313FC004730FD00FD0B132839
:0A002A00FC0B132800000000080082
:1000340083120313E91B2028061121280615691BC6
:100044002528861126288615E91A2A2806122B281F
:100054000616691A2F288612302886165D18342849
:1000640086173528861306170A200613E9193C2833
:1000740006113D280615691941288611422886155E
:10008400E918462806124728061669184B288612CE
:100094004C2886165D185028861751288613061793
:1000A4000A2006135D1C58280D2059280320080037
:1000B400831203135D106808E9001A205D14080018
:1000C40083160313981868280000622883126808AE
:0400D4009900080087
:0E00D800831203135F088A005E08820008008E
:1000E600FF3083120313E000FF30E100FF30E2002F
:1000F600FF30C3309F05C0309F002009F000700814
:0C01060083169F059F1783121F1408002A
:100112009B28803083120313E400AE28C030E40031
:10012200AE289430E400AE28D430E400AE2880300B
:10013200E400AE28831203136408013A03198A28E3
:100142006408023A03198F286408033A03199228B3
:100152006408043A0319952898286503F000640896
:10016200F0077008E4007008E9001A205D10E7014A
:1001720067086607840000080319C728670866072E
:1001820084000008E8005A20E70AB9285D14080034
:10019200831603130613861386120612861106119E
:1001A20083120613861306118611061286120D207B
:1001B2000D200D200616861606170A2006130D209E
:1001C20006170A2006130D2006170A2006130D2013
:1001D200861206170A2006130D2006170A20061398
:1001E2000612061506170A2006130D20061186169A
:1001F20006170A200613861206170A2006130D2078
:1002020006170A200613861606170A2006130D2063
:10021200861206170A200613061586150616861676
:0C02220006170A2006130D205D140800CA
:10022E006C208A110A128000840ADE0A0319DF0A82
:08023E00F003031D172908005D
:100246008316031398169030831298008316871727
:10025600071383128C1E32291A08F0002C29080075
:1002660083120313E601640884000008E5006508AC
:10027600003A031948296508E8006220E60A66087C
:0C028600640784000008E5003A29080025
:100292001822FF3083160317880089010D300313DB
:1002A20085008730870083128601333083169900D8
:1002B200181523210230FB000430FC00BA30FD0087
:1002C200FD0B6129FC0B6129FB0B612900005730F2
:1002D200E4003321C9200130E9001A200C30E90082
:1002E2001A200130E4000130E5004430E6008920A4
:1002F2007320071C9B2900303306031D822900301E
:100302003206031D9B290130B2000030B3003430A5
:10031200E3000130E4000130E5006308E6008920D3
:100322003430FC00F130FD00FD0B9529FC0B9529C2
:10033200000000000718A72900303306031DA32977
:1003420001303206031DA729B201B301071DC829D6
:1003520000305606031DAF2900305506031DC8297B
:100362000130D5000030D6002130E3000130E40036
:100372000130E5006308E60089203430FC00F130EA
:10038200FD00FD0BC229FC0BC22900000000071969
:10039200D42900305606031DD02901305506031D0D
:0A03A200D429D501D6017A29D52906
:10043000203084003D3083120313F000DB30DE00F7
:080440000130DF001721080064
:0203B6003034E1
:1003B8004D346F347334743472346134723420348D
:1003C8006D34753465347334743472346134733411
:0203D8000034EF
:0403DA0000340034B7
:1003DE004D347534653473347434723465346F341B
:1003EE0058347434693465346D3470346F34003479
:1003FE00503472346F3479346534633474346F34FA
:10040E00203449346E3474346534673472342E3487
:02041E000034A8
:040420000034003470
:0C04240053347434613472347434003486
:04400E00F22F000786
:00000001FF
