:040000000A16732841
:10000800FF00030E83018316A9000A08A8008A01CD
:1000180070088312A4007108A3007208A200730874
:10002800A1000408A5008C1E53281A08D50033081F
:10003800CB3E8400550880003308033C0318492848
:100048003308CB3E84000008FF3A031D49280130DD
:100058003302F000F101031CF1037008CB3E840069
:100068000008FF3A031D492802303302F000F1016D
:10007800031CF1037008CB3E84000008FF3A031DFF
:1000880049280130DF0018128B13B30A33081E3ACF
:10009800031D5228DF01B301E201E3018C120B1D9D
:1000A800BB280130E2000030E3004108F0004208BC
:1000B800F1004308F2004408F300F00A0319F10ABA
:1000C8000319F20A0319F30A7008C1007108C20083
:1000D8007208C3007308C4000B1106308100003099
:1000E800F0004406031D822870084306031D822879
:1000F80003304206031D82284108E83A031D9F2861
:100108005808F0005908F1005A08F2005B08F3009B
:10011800F00A0319F10A0319F20A0319F30A70081D
:10012800D8007108D9007208DA007308DB00C10131
:10013800C201C301C4010030E11BFF30F0005B06BF
:10014800031DB02870085A06031DB0286108590617
:10015800031DB02858086006031DBB280130D300D2
:100168000030D40083168101831281018B01240899
:10017800F0002308F1002208F2002108F300250806
:100188008400831628088A00290E8300FF0E7F0E3C
:0201980009005C
:0E019A00831603136A088A00690882000800B1
:1001A800FD2883120313EE150317A30A0319A40AE3
:1001B8006229831203136E140317A30A0319A40AEE
:1001C800622983120313EE140317A30A0319A40A5E
:1001D800622983120313EF150317A30A0319A40A4C
:1001E8006229831203136E150317A30A0319A40ABD
:1001F800622983120317230883160313E900831265
:100208000317240883160313EA00CD208A110A1263
:10021800F10071082D3A0319D52883120317230812
:1002280083160313E90083120317240883160313A4
:10023800EA00CD208A110A12F1007108203A031948
:10024800DD2883120317230883160313E90083129A
:100258000317240883160313EA00CD208A110A1213
:10026800F10071082B3A0319E528831203172308B4
:1002780083160313E9008312031724088316031354
:10028800EA00CD208A110A12F1007108233A0319F5
:10029800ED2883120317230883160313E90083123A
:1002A8000317240883160313EA00CD208A110A12C3
:1002B800F1007108303A0319F5286329D42803138B
:1002C8008312EE1C68296E10EE1D6B296E11031740
:0A02D8002308F0002408F1000800DC
:1002E200831203172308393C031C7E293030230272
:0E02F200031C7E290130F0007F29F001080076
:1003000083120313FB01FA01F9018030F800F10CAC
:10031000F00C031C94297408F90775080318750F6D
:10032000FA070318FB0A0310F01F9C297408FA0748
:1003300075080318750FFB07FB0CFA0CF90CF80C89
:10034000031C87297B08F3007A08F2007908F10082
:060350007808F00008002F
:10035600831203136E1D132AEE1CC3296E1CB629C5
:100366002D30F300B8292B30F3000317230884003F
:1003760073088000A30A0313EB0A0319EC0AF92990
:100386006E1CD02903172308840020308000A30A9E
:100396000313EB0A0319EC0AF929C0306E05F100C4
:1003A6006F080839F2007208083A031DDC2980300C
:1003B6007106031DF92903172308840030308000D5
:1003C600A30A0313EB0A0319EC0AEE1EED295830B3
:1003D600F400EF297830F40003172308840074082A
:1003E6008000A30A0313EB0A0319EC0A83162608F6
:1003F60027040319122A83120317230884003030B6
:100406008000A30A0313EB0A0319EC0A01308316D2
:10041600A602031CA70326082704031DFE29922A09
:1004260083162608270403192F2A8312EE192F2A6A
:10043600831203172308840020308000A30A0313C5
:10044600EB0A0319EC0A01308316A602031CA70364
:1004560026082704031D1B2A8312EE1C442A6E1C41
:10046600372A2D30F500392A2B30F50003172308DB
:10047600840075088000A30A0313EB0A0319EC0A2B
:10048600502A6E1C502A031723088400203080004F
:10049600A30A0313EB0A0319EC0AC0306E05F10038
:1004A6006F080839F2007208083A031D5C2A4030CA
:1004B6007106031D692A0317230884003030800063
:1004C600A30A0313EB0A0319EC0A922AC0306E053D
:1004D600F1006F080839F2007208083A031D752A00
:1004E60080307106031D922A0317230884003030DA
:1004F6008000A30A0313EB0A0319EC0AEE1E862AF0
:100506005830F600882A7830F6000317230884004E
:1005160076088000A30A0313EB0A0319EC0A80305D
:10052600F0008030831624067002031D9D2A2308DE
:1005360083126D020318AB2A031783122308840063
:1005460030308000A30A0313EB0A0319EC0A922A3F
:0A055600831203172308F0000800C9
:1005600083120313F801F9011030FC00710DF80D2E
:10057000F90D7408F8027508031C750FF9020318C9
:10058000C82A7408F80775080318750FF9070310CF
:0A059000F00DF10DFC0BB62A080077
:10059A0083120313FB01FA01F901F801A001730D9B
:1005AA00F80D7408F8027508031C750FF90276082D
:1005BA00031C760FFA027708031C770FFB0200016F
:1005CA00031C0130A002F30D0730FC00730DF80D77
:1005DA00F90DFA0DFB0DA00D7408731C062BF80219
:1005EA007508031C750FF9027608031C760FFA02C8
:1005FA007708031C770FFB020001031C0130A002DD
:10060A00172BF80775080318750FF90776080318EA
:10061A00760FFA0777080318770FFB07000103180C
:10062A000130A007F30DFC0BEB2A720DF80DF90D42
:10063A00FA0DFB0DA00D7408731C352BF802750812
:10064A00031C750FF9027608031C760FFA02770865
:10065A00031C770FFB020001031C0130A002462B8A
:10066A00F80775080318750FF90776080318760F47
:10067A00FA0777080318770FFB0700010318013000
:10068A00A007F20D0730FC00720DF80DF90DFA0DF6
:10069A00FB0DA00D7408721C642BF8027508031C6C
:1006AA00750FF9027608031C760FFA027708031C05
:1006BA00770FFB020001031C0130A002752BF8071B
:1006CA0075080318750FF90776080318760FFA07E5
:1006DA0077080318770FFB07000103180130A007FA
:1006EA00F20DFC0B492B710DF80DF90DFA0DFB0DEE
:1006FA00A00D7408721C932BF8027508031C750F61
:10070A00F9027608031C760FFA027708031C770FA2
:10071A00FB020001031C0130A002A42BF807750894
:10072A000318750FF90776080318760FFA07770882
:10073A000318770FFB07000103180130A007F10D1A
:10074A000730FC00710DF80DF90DFA0DFB0DA00D27
:10075A007408711CC22BF8027508031C750FF90284
:10076A007608031C760FFA027708031C770FFB0240
:10077A000001031C0130A002D32BF80775080318E7
:10078A00750FF90776080318760FFA077708031822
:10079A00770FFB07000103180130A007F10DFC0BCE
:1007AA00A72B700DF80DF90DFA0DFB0DA00D7408AD
:1007BA00711CF12BF8027508031C750FF9027608F3
:1007CA00031C760FFA027708031C770FFB0200015D
:1007DA00031C0130A002022CF80775080318750FD4
:1007EA00F90776080318760FFA0777080318770FC0
:1007FA00FB07000103180130A007F00D0730FC00C9
:10080A00700DF80DF90DFA0DFB0DA00D7408701C92
:10081A00202CF8027508031C750FF9027608031CD0
:10082A00760FFA027708031C770FFB020001031CFC
:10083A000130A002312CF80775080318750FF90763
:10084A0076080318760FFA0777080318770FFB075D
:10085A00000103180130A007F00DFC0B052C7018DD
:10086A00442C7408F80775080318750FF9077608F9
:10087A000318760FFA0777080318770FFB070800A3
:10088A008316031398184B2C0000452C8312031768
:08089A001B080313990008007C
:1008A200831203171D08F0009D0370080319792CA9
:1008B2001B0884000008003A03196A2C1C088400F3
:1008C2000008F1001B08840000087106031D6A2C51
:1008D200762C1B0884000008F0001C088400000825
:1008E200F002F101031CF1037B2C9B0A9C0A512CA0
:0608F200F001F101080015
:1008F800710DF80DF90D7408F8027508031C750FD1
:10090800F902F00DF10D0F30FC00710DF80DF90D25
:100918007408701C952CF8027508031C750FF902F1
:100928009A2CF80775080318750FF907F00DF10DE3
:10093800FC0B892C7018A62C7408F8077508031886
:08094800750FF907000008001B
:1009500083120317A001A10100302102031DB22C54
:100960000A3020020318BD2C20081F078400203005
:100970008000A00A0319A10AAC2C20081F078400DC
:1009800080010130A002031CA10320081F07A20060
:100990000A30F400F501F601F7011B08F0001C080D
:1009A000F1001D08F2001E08F300CD227808F000C7
:1009B0007908F1007A08F2007B08F3003030F00784
:1009C000031722088400700880000A30F400F50143
:1009D000F601F7011B08F0001C08F1001D08F200E9
:1009E0001E08F300CD22700803179B0071089C00BD
:1009F00072089D0073089E000030F4007306031D0A
:100A00000B2D74087206031D0B2D74087106031D4F
:100A10000B2D7008003A031D0E2D132D0130A0027E
:080A2000031CA103C52C080012
:100A28000E3083120313FD00FD0B182D0000080083
:100A3800831203171B08F2007208F000F20A70080C
:100A4800840000080319292D202D1B087202F000CC
:0C0A58000130F002F101031CF103080062
:100A6400831203171B08840000081C06031D3D2D78
:100A74001B08F000482D1B08F0009B0A7008840036
:0E0A84000008F0007008031D322DF00108007C
:100A9200831603178C1C4F2D0000492D03136D087C
:100AA200831203178D00831603136E088312031734
:100AB2008C0083168C130C150B08F0008B13553029
:100AC2008D00AA308D008C14F01B692D8B136A2DBA
:060AD2008B170C11080057
:100AD800133083160313EF008312031710089B00CB
:100AE80011089C0012089D00EF309E008A15002016
:100AF8008A1170088316ED007108EE0070088312E1
:100B08000317100784008001831603136D08F00093
:060B18006E08F100080068
:100B1E00831603136D08003A0319CF2D6D08840058
:100B2E0000080319CF2D6E08831203179B001C2596
:100B3E0070089D00831603136D08831203179B0024
:100B4E00831603136E08831203179C005124003082
:100B5E007106031DB42D00307006031DBB2D8316C8
:100B6E0003136D08F000D02D831603136D0A831244
:100B7E0003179B00831603136E088400000883126C
:100B8E0003179C003225700883160313ED008F2D7A
:040B9E00F00108005A
:100BA200C330831203139F05C0309F0083166D0864
:100BB200F000F00D7010F00D7010700883129F0499
:100BC2002609F000700883169F059F1783121F14D1
:100BD20014259F149F1CEF2D0000EB2D1F101E08E3
:100BE200F100F00183161E08F0040030F104080041
:100BF20083120317950196011008970011089800B7
:100C02001208990013089A0080301306F000803011
:100C12007002031D162E00301202031D162E003024
:100C22001102031D162E0030100203183E2E013051
:100C3200950000309600F401F501F601F701100865
:100C4200F0001108F1001208F2001308F300740812
:100C52009700750898007608990077089A0070083E
:100C620097027108031C710F98027208031C720F1D
:100C720099027308031C730F9A0217089B00180845
:100C82009C0019089D001A089E0014089F00A824C1
:100C92000B3083160313ED000030EE006E08003CAB
:100CA200031D552E6D08003C0318782E6D08831223
:100CB20003171407F2000130831603136D02F000CC
:100CC2000030031C013E6E02F1007008831203170C
:100CD200140784000008F000720884007008800085
:100CE200013083160313ED02031CEE034F2E831211
:100CF2000317140884002030800015081604031915
:100D0200A22E83160313ED01EE016D088312031761
:100D1200140784000008203A031D952E831603133E
:100D2200ED0A0319EE0A862E831603130130ED0233
:100D3200031CEE036D0883120317140784002D3081
:040D42008000080025
:100D4600831203132230FC00F801F901FA01FB01BA
:100D5600FC030319D92E0310FB0CFA0CF90CF80C42
:100D6600F30CF20CF10CF00C031CAB2EFC03031974
:100D7600CB2E7408F80775080318750FF90776085F
:100D86000318760FFA0777080318770FFB07AF2EBD
:100D96007408F80775080318750FF907760803181D
:0E0DA600760FFA0777080318770FFB0708008F
:100DB400831603136D08E9006E08EA00CD208A113A
:100DC4000A12F00070080319F72E6D08E9006E0886
:100DD400EA00CD208A110A12831203179B004524CE
:0C0DE4008316ED0A0319EE0ADA2E08004F
:100DF000831203137408003A031D072F7508003A85
:100E0000031D072FFF30F0007F30F100602F8312A9
:100E10000313FD01F901F80171087004031900348E
:100E200071087506FA00FA1BFD09FB01F51F1D2F5D
:100E3000F409F509F40A0319F50AF11F242FF00942
:100E4000F109F00A0319F10A71087504FA00FA1B96
:100E5000392F7C247B184C2FFD1F0034F009F10939
:100E6000F00A0319F10AF809F909F80A0319F90A4D
:100E70000034F51F482FF11B442F7108F90070084A
:100E8000F800F101F0012C2FF101F001F00A00341B
:100E9000F109F009FB0A292FF80A0319F90A740865
:100EA0007802031D2C2F75087902031D2C2FF901E0
:100EB000F801F00A0319F10AF11F2C2F0000FF348A
:020EC000080028
:100EC200831603136D08831203178D0083168C1388
:0A0ED2000C1483120C08F000080055
:100EDC0083160313EF016D0884000008EE006E0802
:100EEC00003A0319862F6E08831203179B004524C2
:100EFC008316EF0A6F086D0784000008EE00752F4B
:020F0C000800DB
:100F0E00831203171008F2001208F0001308F10004
:100F1E0001309202031C93037008710403199D2F74
:100F2E007208840011088000F20A8B2F1008F0005E
:020F3E000800A9
:100F400083120313B301DF01D501E701E801E201D8
:100F5000E301D301D401B101B201BE01BF01C0015F
:100F6000BC01BD01C901CA01E901EA01CB01CC0103
:100F7000C101C201C301C401C501C601C701C80145
:100F8000D801D901DA01DB01D601D701CF01D001A7
:100F9000CD01CE01D201D101A901E701E801E001B3
:0C0FA000E101A701A801AA01AB010800B3
:100FAC0083160313981690308312980083168717B4
:100FBC00071383128C1EE52F1A08F000DF2F080090
:100FCC00CD208A110A128000840AE90A0319EA0A60
:080FDC00F003031DE62F0800DD
:1010000083120313EB01EC01EE01EF0103178312CE
:101010001C08F0001D08F1009C0A03199D0A7008C5
:1010200083160313E9007108EA008A11CD208A159E
:101030000A12F00070088312ED0070080319B12D38
:101040006D08253A0319312803171B088400031380
:101050006D08800003179B0A0313EB0A0319EC0ABF
:1010600006288316A601A7018312EE01EF010317DC
:101070001C08A3001D08A4008A11D4208A1570083A
:101080009C0071089D00700883160313E900710825
:10109000EA008A11CD208A150A12F0000030F10012
:1010A000700883120317A3008A1171218A15700832
:1010B0000319A72883160313A601A7018316031398
:1010C0002608F0002708F1000A30F4000030F5008F
:1010D0008A1180218A1503171C0883160313E9005F
:1010E000831203171D0883160313EA008A11CD200B
:1010F0008A150A12F20072087007A6007108031818
:10110000013EA7003030A602031CA7038312031779
:101110009C0A03199D0A1C0883160313E900831215
:1011200003171D0883160313EA008A11CD208A15C0
:101130000A12F0000030F100700883120317A300B8
:101140008A1171218A157008031D5E28D7281C0892
:1011500083160313E900831203171D088316031374
:10116000EA008A11CD208A150A12F10071082A3A84
:10117000031DD728831203171E0884000008F000FF
:1011800070088400000883160313A600840A000870
:10119000A700831203171E08840002300007F00026
:1011A0001E088400700880009C0A03199D0A83129F
:1011B00003171C0883160313E900831203171D0885
:1011C00083160313EA008A11CD208A150A12F10052
:1011D00071082E3A031D7229831203179C0A031902
:1011E0009D0A1C0883160313E900831203171D08C8
:1011F00083160313EA008A11CD208A150A12F10022
:1012000071082A3A031D2229831203171E0884003D
:101210000008F00070088400000883160313A30080
:10122000840A0008A400831203171E0884000230F9
:101230000007F0001E088400700880009C0A031953
:101240009D0A712983160313A301A40183120317B6
:101250001C0883160313E900831203171D08831665
:101260000313EA008A11CD208A150A12F00000301B
:10127000F100700883120317A3008A1171218A15E7
:10128000700803197129831603132308F00024083A
:10129000F1000A30F4000030F5008A1180218A152F
:1012A00003171C0883160313E900831203171D0894
:1012B00083160313EA008A11CD208A150A12F20060
:1012C00072087007A30071080318013EA4003030B3
:1012D000A302031CA403831203179C0A03199D0A8B
:1012E0002629762983160313A301A4018312031769
:1012F0001C08F0001D08F1009C0A03199D0A7008E3
:1013000083160313E9007108EA008A11CD208A15BB
:101310000A128312ED00882A6B08F0006C08F100B5
:10132000B62D6E17B92AB92AEE16EE17B92A031789
:101330001E0884000008F0007008840000089F0068
:101340001E088400000AF0001E0884007008800057
:101350001F08003A031DAE292C309F00A001A101F7
:1013600020081F07840000080319C3292008013E34
:10137000F00000300318013E2107F1007008A000C2
:101380007108A100B029831603132308240403194C
:10139000E329831203172108831603132402031D74
:1013A000D729831203172008831603132302031877
:1013B000E329230883120317A000831603132408CC
:1013C00083120317A1008316031327088312031740
:1013D0002102031DF1298316031326088312031724
:1013E00020020318002A200883160313A602031CF8
:1013F000A70383120317210883160313A702042AE5
:1014000083160313A601A7018312EE19202A83165F
:101410002608F0002708F1000130A602031CA703EC
:10142000700871040319202A831203171B08840013
:10143000203080009B0A0313EB0A0319EC0A072AE9
:10144000031783122008F2002108F3000130200264
:10145000F0000030031C013E2102F1007008A000E2
:101460007108A100720873040319482A1F08840038
:101470000008F0001B088400700880009B0A1F0A07
:10148000F00070089F000313EB0A0319EC0A202AEE
:101490000313EE1D642A83162608F0002708F100C6
:1014A0000130A602031CA703700871040319642A03
:1014B000831203171B088400203080009B0A03134B
:1014C000EB0A0319EC0A4B2A0628831203171E089D
:1014D00084000008F0007008840000080313ED0089
:1014E00003171E08840002300007F0001E08840065
:1014F0007008800003176D309F000130A00000309D
:10150000A100C329C0300313EE040030EF04B92A50
:101510006D08003A03198C296D086C3A031991295A
:101520006D084C3A031991296D086F3A03199129F6
:101530006D08643A031993296D08693A03199329D0
:101540006D08703A031994296D08583A03199429C3
:101550006D08783A031995296D08733A031997298C
:101560006D08633A0319652A6D08753A0319822AD2
:101570007A2AC0306E05F1006F08F2000030F205E3
:1015800000307206031DC62A00307106031DFB2AB7
:1015900003171E0884000008F0007008840000088B
:1015A0009F00840A0008A0001E0884000230000783
:1015B000F0001E0884007008800080302006F000D3
:1015C00080307002031DE62A00301F020318FA2A39
:1015D00003300313EE040030EF0403171F08003C30
:1015E000F0002008031C013EF101F10270089F0089
:1015F0007108A000102B03171E0884000008F000DB
:101600007008840000089F00840A0008A0001E08DB
:10161000840002300007F0001E088400700880007B
:101620000030831603132406031D182B00302306F5
:10163000031D292B0030831203172006031D222BC4
:1016400000301F06031D292B83160313A30A031959
:10165000A40A0313C03083126E05F0007008F40072
:10166000CD2B03130130ED006D08053A0319642BEF
:101670006D08F000F101F00DF10D70102E30F00743
:1016800011300318013EF10770088316E900710854
:10169000EA008A11CD208A150A12F200E90A03191C
:1016A000EA0A8A11CD208A150A12F3007308831200
:1016B00003172002031D5E2B72081F020318612B03
:1016C000642B0313ED0A342BDD2B03130130ED00E3
:1016D0006D08043A0319982B6D08F000F101F00D24
:1016E000F10D7010F830F0070F300318013EF107CC
:1016F00070088316E9007108EA008A11CD208A1566
:101700000A12F200E90A0319EA0A8A11CD208A15A1
:101710000A12F3007308831203172002031D922B91
:1017200072081F020318952B982B0313ED0A682BE0
:10173000DD2B03130130ED006D08063A0319CC2BA5
:101740006D08F000F101F00DF10D7010F230F007AE
:1017500007300318013EF10770088316E90071088D
:10176000EA008A11CD208A150A12F200E90A03194B
:10177000EA0A8A11CD208A150A12F300730883122F
:1017800003172002031DC62B72081F020318C92B62
:10179000CC2B0313ED0A9C2BDD2B7408003A0319A4
:1017A000312B7408C03A0319312B7408803A03199D
:1017B000652B7408403A0319992B03138030F0000D
:1017C0008030831624067002031DE92B2308831240
:1017D0006D020318F02B831623088312ED00032CEF
:1017E000803083162406F00080307002031DFC2B2D
:1017F00083126D08831623020318032C83126D08CD
:101800008316A300A4018316260827040319192CA4
:10181000033083126E05F0006F08F1000030F1050F
:10182000700871040319192C01308316A602031CD9
:10183000A703831680302406F0008030270670024C
:10184000031D242C2608230203182D2C2308A6028E
:10185000031CA7032408A7022F2CA601A701C4304C
:1018600083126E05F1006F080839F2007208083A19
:10187000031D3C2C40307106031D482C831626089E
:1018800027040319472C0130A602031CA7036A2C66
:10189000C03083126E05F1006F080839F20072083B
:1018A000083A031D552C80307106031D6A2C8030C8
:1018B000F0008030831627067002031D612C260875
:1018C000023C0318682C0230A602031CA7036A2CF2
:1018D000A601A701831203171B08A3008A11AB21DD
:1018E0008A1570089B00831603132308F000240850
:1018F000F1000130A302031CA40370087104031952
:101900008D2DC03083126E05F00070080317A20001
:101910006F2D831603132308F0002408F100F00D47
:10192000F10D70102E30F00711300318013EF10751
:101930007008E9007108EA008A11CD208A150A12A0
:10194000F400E90A0319EA0A8A11CD208A150A125D
:10195000F500831203171F08F0002008F1008A1118
:10196000B0228A150A30F4000030F5008A11B02246
:101970008A157808F0007908F10030307007ED0022
:10198000802D0313EE1E022D83162308F000240879
:10199000F100F00DF10D7010F830F0070F30031862
:1019A000013EF1077008E9007108EA008A11CD20B4
:1019B0008A150A12F400E90A0319EA0A8A11CD20ED
:1019C0008A150A12F500831203171F08F000200879
:1019D000F1008A11B0228A150F30F0050030F105B0
:1019E0000C30F00711300318013EF1077008831620
:1019F000E9007108EA008A11CD208A150A128312C3
:101A0000ED003F2D83162308F0002408F100F00DAF
:101A1000F10D7010F830F0070F300318013EF10798
:101A20007008E9007108EA008A11CD208A150A12AF
:101A3000F400E90A0319EA0A8A11CD208A150A126C
:101A4000F500831203171F08F0002008F1008A1127
:101A5000B0228A150F30F0050030F1051D30F00777
:101A600011300318013EF10770088316E900710870
:101A7000EA008A11CD208A150A128312ED00802D0A
:101A8000031383162308F0002408F100F00DF10D74
:101A90007010F230F00707300318013EF1077008AC
:101AA000E9007108EA008A11CD208A150A12F400B3
:101AB000E90A0319EA0A8A11CD208A150A12F500EB
:101AC000831203171F08F0002008F1008A11B022CA
:101AD0008A1507307005ED003030ED07802D0317B3
:101AE0002208003A0319892C2208C03A0319892CCC
:101AF0002208803A0319C12C2208403A0319402DCC
:101B000003171B08840003136D08800003179B0A4A
:101B10000313EB0A0319EC0A732C8312EE1DB02D8C
:101B20008030F0008030831627067002031D9A2D46
:101B30002608003C0318B02D831203171B088400ED
:101B4000203080009B0A0313EB0A0319EC0A0130D2
:101B50008316A602031CA70326082704031D9C2D39
:0E1B6000062883126B08F0006C08F1000800E4
:101B6E00831603136D0884000008EE00EF010030A9
:101B7E00EF0000306F06031DC62D20306E060319D0
:101B8E00D12D00306F06031DCE2D09306E060319C0
:101B9E00D12DD32DED0AB72D83120317900191018C
:101BAE00920193010030831603136F06031DE12D7E
:101BBE002D306E06031DEC2D83120317920A0319A6
:101BCE00930A83160313ED0AF52D00306F06031DDD
:101BDE00F22D2B306E06031DF52DED0A6D088400D7
:101BEE000008EE00EF010030EF006E0883120317BD
:101BFE00A3008A1171218A1570080319282E100866
:101C0E00F0001108F1000A30F4000030F5008A11DE
:101C1E0080218A15303083166E02F2000030031CCC
:101C2E00013E6F02F30072087007831203179000D3
:101C3E0071080318013E7307910083160313ED0A12
:101C4E00F52D83120317120813040319372E1008EB
:101C5E00003CF0001108031C013EF101F1023B2E85
:0A1C6E001008F0001108F100080052
:101C7800831203136008F4006108F5000030F51BB7
:101C8800FF30F600F7003408F0003508F100360898
:101C9800F2003708F3008A11CD228A157008B400C3
:101CA8007108B5007208B6007308B7008316ED0115
:101CB8008A1161278A15700883160313EB00EC015B
:101CC800EB0DEC0D6B10EB0DEC0D6B106B0883122C
:101CD800E70083166C088312E8003408F000350822
:101CE800F1003608F2003708F3008830F4001330AA
:101CF800F500F601F7018A11A3268A157008B800C5
:101D08007108B9007208BA007308BB00FF30F4000C
:101D18000330F500F601F7018A11CD228A15700803
:101D2800B8007108B9007208BA007308BB00E8303F
:101D3800F4000330F500F601F7018A11CD228A1567
:101D480070088316A5006B08013EF40000300318E4
:101D5800013E6C07F50074088312E7007508E80077
:101D680074088316ED007008EE008A1149258A155B
:101D78003430FC00F130FD00FD0BC02EFC0BC02EF2
:101D8800000000006430F400F501F601F701831249
:101D980003133808F0003908F1003A08F2003B084C
:101DA800F3008A11CD228A150A30F400F501F601F4
:101DB800F7018A11CD228A157808F0007908F10018
:101DC8007A08F2007B08F30070088316A5008312D6
:101DD800E70A0319E80A67088316ED007008EE00A1
:101DE8008A1149258A153430FC00F130FD00FD0BBD
:101DF800FB2EFC0BFB2E000000000A30F400F5015E
:101E0800F601F701831203133808F0003908F100CE
:101E18003A08F2003B08F3008A11CD228A150A30ED
:101E2800F400F501F601F7018A11CD228A15780828
:101E3800F0007908F1007A08F2007B08F3007008D6
:101E48008316A5008312E70A0319E80A67088316B0
:101E5800ED007008EE008A1149258A153430FC001F
:101E6800F130FD00FD0B362FFC0B362F0000000073
:101E78000A30F400F501F601F7018312031338085C
:101E8800F0003908F1003A08F2003B08F3008A1123
:101E9800CD228A157808F0007908F1007A08F20056
:101EA8007B08F30070088316A5008312E70A03195C
:101EB800E80A67088316ED007008EE008A114925C4
:101EC8008A153430FC00F130FD00FD0B692FFC0B46
:101ED800692F000000000313ED018A1161278A159C
:101EE800700883160313A500F00A7008A500ED0119
:101EF8007008EE008A1149258A1583120313B4016C
:081F0800B501B601B7010800A4
:101F100083160313ED018A11D1258A1570088312E7
:101F2000E9007108EA00FF30F400F5018A11802110
:101F30008A15FF30F4000330F5008A11F8268A155F
:101F40007008E7007108E800700803179000710836
:101F500091000030911BFF3092009300C830940034
:101F60008A11F9258A15AA30900038309100113075
:101F700092008A116C258A15AA30ED008A116E270D
:101F80008A15AA3083120317900045309100113052
:101F900092000313670803179300031368080317DD
:101FA00094008A116C258A15AA30ED008A116E27DB
:101FB0008A154130ED001130EE008A11DA268A15BB
:021FC000080017
:101FC200FF3083160313A000FF30A100FF30A200F0
:101FD200FF30C33083129F05C0309F002609F000F6
:0E1FE200700883169F059F1783121F140800B6
:10200000831203135F08013A031D7228CB30831635
:10201000ED006430EE000A128F250A1670080319CD
:10202000492801308312E2000030E3008316ED01FD
:102030008A150A12B7258A110A1670088316031327
:10204000EB007108EC004E08F100F0017008ED00A3
:102050008A150A12B7258A110A1670088316031307
:10206000EB0771080318013EEC074F08ED008A15D5
:102070000A12B7258A110A167008831603136B0714
:102080008312E00083166C080318013E7107831267
:10209000E100CB308316ED005C30EE000A128F2594
:1020A0000A167008031960284D08ED008A150A12F7
:1020B000B7258A110A1670080313B1007108B2001F
:1020C0008312CB300317900091011E309200003034
:1020D00093000A1287270A160313B301DF018C123B
:0620E00018168B17080022
:1020E6004821FF3083160317880089010D3003133A
:1020F6008500860180308700880189018312850169
:102106008801870186018901B3013330831699005E
:1021160018150A12D6270A16AA300317900091013D
:102126001E309200003093000A1287270A168A157D
:102136000A12E1278A110A168C1283168C160B17BF
:102146008B1783125F080319A9280020620863040D
:102156000319B3288A150A1288278A110A16C02875
:102166008312530854040319C0288A150A123C2600
:0E2176008A110A160A12A0270A16A428C128E8
:1022900026308400453083120313F000C7308316C4
:0E22A000E9001030EA000A12E6270A160800CC
:100FE4000134003408340034403400340034023412
:080FF400003410340034803495
:101FF000013400341034003400340134003410341F
:02218E003034EB
:0421900000340034E3
:02219400003415
:0421960000340034DD
:0A219A006E3475346C346C3400347C
:0421A40000340034CF
:0221A800003401
:0821AA0000340034003400345D
:0821B200003400340034003455
:0221BA000034EF
:0221BC000034ED
:0421BE0000340034B5
:0221C2000034E7
:0821C400003400340034003443
:0821CC0000340034003400343B
:0421D400003400349F
:0421D800003400349B
:0421DC000034003497
:0421E0000034003493
:0221E4000034C5
:0221E6000034C3
:0421E800003400348B
:0221EC000034BD
:0421EE000034003485
:0821F200003400340034003415
:0621FA0062343D340034A4
:022200000034A8
:042202000034003470
:04220600003400346C
:06220A0074343D34003481
:042210000034003462
:04221400003400345E
:10221800303431343234333434343534363437347A
:102228003834393441344234433444344534463400
:02223800003470
:10223A003034313432343334343435343634373458
:10224A00383439346134623463346434653466341E
:02225A0000344E
:10225C00013400340A34003464340034E834033478
:04226C0010342734CF
:10227000613464346434203438342C3430342C34B5
:02228000003428
:08228200FF34FF34FF34003487
:06228A0025347534003418
:04400E00F22F000786
:00000001FF
