:020000009D2D34
:10000800FF00030E83018316C8000A08C9008A018D
:1000180070088312A3007108A2007208A100730877
:10002800A0000408A4008C1E53281A08BD0050081C
:10003800CC3E84003D0880005008033C0318492842
:100048005008CC3E84000008FF3A031D49280130BF
:100058005002F000F101031CF1037008CC3E84004B
:100068000008FF3A031D492802305002F000F10150
:10007800031CF1037008CC3E84000008FF3A031DFE
:1000880049280130DA0018128B13D00A1E305002AA
:10009800031C5228DA01D001DB01DC018C120B1D94
:1000A800BB280130DB000030DC002908F0002A08FA
:1000B800F1002B08F2002C08F300F00A0319F10AEA
:1000C8000319F20A0319F30A7008A9007108AA00B3
:1000D8007208AB007308AC000B11063081000030C9
:1000E800F0002C06031D822870082B06031D8228A9
:1000F80003302A06031D82282908E83A031D9F2891
:100108002F08F0003008F1003108F2003208F3003F
:10011800F00A0319F10A0319F20A0319F30A70081D
:10012800AF007108B0007208B1007308B200A901ED
:10013800AA01AB01AC010030D71BFF30F00032063A
:10014800031DB02870083106031DB0285708300673
:10015800031DB0282F085606031DBB280130D80000
:100168000030D90083168101831281018B01230895
:10017800F0002208F1002108F2002008F30024080A
:100188008400831649088A00480E8300FF0E7F0EFC
:0201980009005C
:0E019A00831603134B088A004A0882000800EF
:1001A80083120313F801F9011030FC00710DF80DEA
:1001B800F90D7408F8027508031C750FF902031885
:1001C800EC287408F80775080318750FF907031069
:0A01D800F00DF10DFC0BDA28080011
:1001E2001A2983120313DF150317A40A0319A50A98
:1001F2007F29831203135F140317A40A0319A50AA4
:100202007F2983120313DF140317A40A0319A50A13
:100212007F2983120313E0150317A40A0319A50A01
:100222007F29831203135F150317A40A0319A50A72
:100232007F2983120317240883160313CA0083122B
:100242000317250883160313CB00CD208A110A1247
:10025200F10071082D3A0319F228831203172408BA
:1002620083160313CA008312031725088316031388
:10027200CB00CD208A110A12F1007108203A03192D
:10028200FA2883120317240883160313CA00831261
:100292000317250883160313CB00CD208A110A12F7
:1002A200F10071082B3A031902298312031724085B
:1002B20083160313CA008312031725088316031338
:1002C200CB00CD208A110A12F1007108233A0319DA
:1002D2000A2983120317240883160313CA00831200
:1002E2000317250883160313CB00CD208A110A12A7
:1002F200F1007108303A031912298029F1280313F9
:100302008312DF1C85295F10DF1D88295F11031707
:0A0312002408F0002508F10008009F
:10031C00831203135F1DF329DF1CA6295F1C992987
:10032C002D30F3009B292B30F30003172408840095
:10033C0073088000A40A0313E10A0319E20ADC29FA
:10034C005F1CB32903172408840020308000A40A02
:10035C000313E10A0319E20ADC29C0305F05F1003E
:10036C0060080839F2007208083A031DBF29803072
:10037C007106031DDC29031724088400303080002B
:10038C00A40A0313E10A0319E20ADF1ED02958302C
:10039C00F400D2297830F400031724088400740880
:1003AC008000A40A0313E10A0319E20A6608670431
:1003BC000319F22903172408840030308000A40AA2
:1003CC000313E10A0319E20A0130E602031CE703F6
:1003DC0066086704031DE0296D2A66086704031983
:1003EC000B2ADF190B2A0317240884002030800005
:1003FC00A40A0313E10A0319E20A0130E602031C02
:10040C00E70366086704031DF929DF1C1F2A5F1C1C
:10041C00122A2D30F500142A2B30F500031724086E
:10042C00840075088000A40A0313E10A0319E20A88
:10043C002B2A5F1C2B2A03172408840020308000F1
:10044C00A40A0313E10A0319E20AC0305F05F100A4
:10045C0060080839F2007208083A031D372A403048
:10046C007106031D442A03172408840030308000D1
:10047C00A40A0313E10A0319E20A6D2AC0305F05CE
:10048C00F10060080839F2007208083A031D502A7E
:10049C0080307106031D6D2A031724088400303048
:1004AC008000A40A0313E10A0319E20ADF1E612A81
:1004BC005830F600632A7830F600031724088400BD
:1004CC0076088000A40A0313E10A0319E20A8030BB
:1004DC00F000803065067002031D762A6408630202
:1004EC000318832A03172408840030308000A40AE0
:1004FC000313E10A0319E20A6D2A03172408F0001A
:02050C000800E5
:10050E0083120313FB01FA01F9018030F800F10C9C
:10051E00F00C031C9B2A7408F90775080318750F55
:10052E00FA070318FB0A0310F01FA32A7408FA0730
:10053E0075080318750FFB07FB0CFA0CF90CF80C79
:10054E00031C8E2A7B08F3007A08F2007908F1006A
:06055E007808F00008001F
:10056400831203172408393C031CBF2A30302402A9
:0E057400031CBF2A0130F000C02AF00108006D
:10058200831603139818C72A0000C12A831203177F
:080592001C0803139900080086
:10059A0083120317140883160313CA00831203175E
:1005AA00150883160313CB00CD208A110A12F00016
:1005BA0070080319F82A8312031714088316031301
:1005CA00CA0083120317150883160313CB00CD2024
:1005DA008A110A12831203179C00C1220317940A74
:0805EA000319950ACD2A08004F
:1005F200831203171408F2007208F000F20A70085E
:10060200840000080319062BFD2A14087202F00068
:0C0612000130F002F101031CF1030800AC
:10061E00831203171408840000081506031D1A2BF5
:10062E001408F000252B1408F000940A70088400BA
:0E063E000008F0007008031D0F2BF0010800EB
:10064C0083120317960114088400000895001508FE
:10065C00003A03193C2B15089C00C1220317960A7B
:0E066C00160814078400000895002D2B0800C6
:10067A001730831203179B0014089C0015089D006D
:10068A0016089E001B309F008A1500208A117008E8
:10069A000317990071089A007008140784008001F2
:0A06AA001908F0001A08F10008001A
:1006B400831203171608F000960370080319822B9F
:1006C400140884000008003A0319732B15088400E9
:1006D4000008F1001408840000087106031D732B40
:1006E4007F2B140884000008F0001508840000081B
:1006F400F002F101031CF103842B940A950A5A2B8E
:06070400F001F101080004
:10070A00831603136C0884000008ED00EE01003024
:10071A00EE0000306E06031D942B20306D0603197F
:10072A009F2B00306E06031D9C2B09306D060319A2
:10073A009F2BA12BEC0A852B8312031790019101A1
:10074A00920193010030831603136E06031DAF2B2B
:10075A002D306D06031DBA2B83120317920A031953
:10076A00930A83160313EC0AC32B00306E06031D8B
:10077A00C02B2B306D06031DC32BEC0A6C088400BA
:10078A000008ED00EE010030EE006D088312031739
:10079A00A400B22270080319F22B1008F000110805
:1007AA00F1000A30F4000030F50087223030831659
:1007BA006D02F2000030031C013E6E02F300720863
:1007CA00700783120317900071080318013E73071C
:1007DA00910083160313EC0AC32B83120317120822
:1007EA0013040319012C1008003CF0001108031C23
:1007FA00013EF101F102052C1008F0001108F10088
:02080A000800E4
:10080C00831603136C08003A0319462C6C088400F9
:10081C0000080319462C6D08831203179400F92263
:10082C0070089600831603136C0883120317940048
:10083C00831603136D088312031795005A23003097
:10084C007106031D2B2C00307006031D322C8316F1
:10085C0003136C08F000472C831603136C0A8312E5
:10086C0003179400831603136D0884000008831289
:10087C00031795000F23700883160313EC00062C46
:04088C00F00108006F
:10089000831603136C08F2006E08F0006F08F10075
:1008A0000130EE02031CEF037008710403195E2C83
:1008B000720884006D088000F20A4C2C6C08F0006D
:0208C00008002E
:1008C20083120313DD01DE0180305E06F00080300A
:1008D2007002031D6E2CFF305D0203188E2CA030B7
:1008E200031794003A3095000630960003135D0812
:1008F2000317970003135E08031798003D23A030E7
:10090200940026235F30940006309500CD22831296
:0C0912000313DD0A0319DE0A652C08003F
:10091E00FF3083120313E800FF30E900FF30EA00D6
:10092E00FF30C3309F05C0309F004409F0007008AF
:0C093E0083169F059F1783121F140800EA
:10094A00831603139816903083129800831687171C
:10095A00071383128C1EB42C1A08F000AE2C080060
:10096A00831203135A08013A031D112DDD01DE011A
:10097A0080305E06F00080307002031DC62C1E30E7
:10098A005D020318112D61245D08CC3E8400000825
:10099A00F1000030F11BFF30F00000307006031D3B
:1009AA00D82C74307106031D0D2D0130DB00003088
:1009BA00DC000130D8000030D9001E30DD000030E4
:1009CA00DE008316EC018523700883160313EA0000
:1009DA007108EB004F08F100F0017008EC00852364
:1009EA00700883160313EA0771080318013EEB0720
:1009FA005008EC0085237008831603136A078312D4
:100A0A00D60083166B080318013E71078312D700BC
:100A1A00DD0A0319DE0ABD2CCC308316EC005330F4
:100A2A00ED00062470080319222D4E08EC008523D8
:100A3A0070080313D1007108D200CC308316EC0081
:100A4A00ED011E30EE000030EF0048248312D00181
:0A0A5A00DA018C1218168B17080041
:100A640083120313D001DA01BD01DD01DE01DB01D4
:100A7400DC01D801D901D101D201BB01BC01BE0105
:100A8400C201C101BF01C001B901BA01AD01AE018A
:100A9400A901AA01AB01AC01A501A601A701A80106
:100AA400AF01B001B101B201B701B801B501B6019E
:100AB400B301B401C301CD01CC01DD01DE01D601D6
:100AC400D701CA01CB01CE01CF01A0308316EC00BF
:100AD400ED011E30EE000030EF004824CC30EC0075
:100AE400ED011E30EE000030EF004824BE30EC0073
:100AF400ED010A30EE000030EF0048246E30EC00C7
:100B0400ED010230EE000030EF0048246B30EC00C1
:0E0B1400ED010330EE000030EF004824080031
:100B2200CD208A110A128000840ACA0A0319CB0A4C
:080B3200F003031D912D0800E2
:100B3A006826FF3083160317880089010D300313D6
:100B4A00850086018030870088018901831285012A
:100B5A0088018701860189013225673099001815B5
:100B6A00A5248F248C1283168C160B178B174F30E3
:100B7A0083120317940006309500CD226330831246
:100B8A000317940006309500CD22B524CA2DCC2D2A
:100CD000253084003A3083120313F000D23083169B
:0A0CE000CA000530CB009125080082
:1010000083120313E101E201DF01E00103171D0870
:10101000F0001E08F1009D0A03199E0A700883164D
:101020000313CA007108CB008A11CD208A150A1259
:10103000F00070088312E30070080319722D630832
:10104000253A0319302803171C088400031363088A
:10105000800003179C0A0313E10A0319E20A062819
:10106000E601E701DF01E00103171D08A4001E08E7
:10107000A5008A11F1208A1570089D0071089E0054
:10108000700883160313CA007108CB008A11CD20A3
:101090008A150A12F0000030F1007008831203175D
:1010A000A4008A11B2228A1570080319A22803131A
:1010B000E601E70103136608F0006708F1000A3053
:1010C000F4000030F5008A1187228A1503171D08E5
:1010D00083160313CA00831203171E088316031313
:1010E000CB008A11CD208A150A12F200720870070F
:1010F0008312E60071080318013EE7003030E60273
:10110000031CE70303179D0A03199E0A1D08831693
:101110000313CA00831203171E0883160313CB00A0
:101120008A11CD208A150A12F0000030F1007008F3
:1011300083120317A4008A11B2228A157008031DB6
:101140005A28D0281D0883160313CA0083120317D8
:101150001E0883160313CB008A11CD208A150A12AC
:10116000F10071082A3A031DD028831203171F08C3
:1011700084000008F0007008840000080313E600F3
:10118000840A0008E70003171F08840002300007E4
:10119000F0001F088400700880009D0A03199E0A51
:1011A000831203171D0883160313CA008312031743
:1011B0001E0883160313CB008A11CD208A150A124C
:1011C000F10071082E3A031D6729831203179D0A47
:1011D00003199E0A1D0883160313CA0083120317FE
:1011E0001E0883160313CB008A11CD208A150A121C
:1011F000F10071082A3A031D1929831203171F08E9
:1012000084000008F0007008840000080313E40064
:10121000840A0008E50003171F0884000230000755
:10122000F0001F088400700880009D0A03199E0AC0
:10123000662983120313E401E50103171D088316D1
:101240000313CA00831203171E0883160313CB006F
:101250008A11CD208A150A12F0000030F1007008C2
:1012600083120317A4008A11B2228A157008031989
:10127000662903136408F0006508F1000A30F400E1
:101280000030F5008A1187228A1503171D0883167E
:101290000313CA00831203171E0883160313CB001F
:1012A0008A11CD208A150A12F20072087007831283
:1012B000E40071080318013EE5003030E402031C2D
:1012C000E50303179D0A03199E0A1D296B29831242
:1012D0000313E401E50103171D08F0001E08F100E7
:1012E0009D0A03199E0A700883160313CA00710829
:1012F000CB008A11CD208A150A128312E300652AD9
:101300006108F0006208F100762D5F17962A962A90
:10131000DF16DF17962A03171F0884000008F00065
:10132000700884000008A0001F088400000AF00074
:101330001F088400700880002008003A031DA229BD
:101340004530A000A101A201210820078400000867
:101350000319B7292108013EF00000300318013EAF
:101360002207F1007008A1007108A200A42903134C
:10137000640865040319CF290317220803136502C3
:10138000031DC62903172108031364020318CF297C
:1013900064080317A100031365080317A2000313D1
:1013A000670803172202031DD929031366080317D0
:1013B00021020318E52921080313E602031CE703B1
:1013C000031722080313E702E8290313E601E701E4
:1013D000DF19012A6608F0006708F1000130E60213
:1013E000031CE703700871040319012A03171C0882
:1013F0008400203080009C0A0313E10A0319E20AEA
:10140000EA2903172108F2002208F3000130210223
:10141000F0000030031C013E2202F1007008A10020
:101420007108A200720873040319282A2008840096
:101430000008F0001C088400700880009C0A200A44
:10144000F0007008A0000313E10A0319E20A012A60
:101450000313DF1D422A6608F0006708F10001301F
:10146000E602031CE703700871040319422A0317FC
:101470001C088400203080009C0A0313E10A031931
:10148000E20A2B2A062803171F0884000008F00030
:101490007008840000080313E30003171F0884008A
:1014A00002300007F0001F08840070088000031756
:1014B0006330A0000130A1000030A200B729C03085
:1014C0000313DF040030E004962A6308003A03198E
:1014D000802963086C3A0319852963084C3A03197B
:1014E000852963086F3A031985296308643A03194B
:1014F00087296308693A031987296308703A031931
:1015000088296308583A031988296308783A031927
:1015100089296308733A03198B296308633A03190D
:10152000432A6308753A03195F2A572AC0305F05BA
:10153000F1006008F2000030F20500307206031D71
:10154000A32A00307106031DD82A03171F08840040
:101550000008F000700884000008A000840A000859
:10156000A1001F08840002300007F0001F0884005B
:101570007008800080302106F00080307002031D6A
:10158000C32A003020020318D72A03300313DF04D4
:101590000030E00403172008003CF0002108031C81
:1015A000013EF101F1027008A0007108A100ED2ACE
:1015B00003171F0884000008F0007008840000086A
:1015C000A000840A0008A1001F0884000230000760
:1015D000F0001F08840070088000003003136506C7
:1015E000031DF42A00306406031D032B003003178B
:1015F0002106031DFD2A00302006031D032B0313C3
:10160000E40A0319E50A0313C0305F05F00070080F
:10161000F400A62B03130130E3006308053A031915
:101620003D2B6308F000F101F00DF10D7010453015
:10163000F00706300318013EF10770088316CA0050
:101640007108CB008A11CD208A150A12F200CA0A4D
:101650000319CB0A8A11CD208A150A12F3007308E8
:10166000831203172102031D372B7208200203186F
:101670003A2B3D2B0313E30A0D2BB62B031301303A
:10168000E3006308043A0319712B6308F000F101C9
:10169000F00DF10D70105730F00706300318013EC1
:1016A000F10770088316CA007108CB008A11CD209B
:1016B0008A150A12F200CA0A0319CB0A8A11CD2030
:1016C0008A150A12F3007308831203172102031DFF
:1016D0006B2B7208200203186E2B712B0313E30A85
:1016E000412BB62B03130130E3006308063A0319BC
:1016F000A52B6308F000F101F00DF10D70102E30F4
:10170000F00706300318013EF10770088316CA007F
:101710007108CB008A11CD208A150A12F200CA0A7C
:101720000319CB0A8A11CD208A150A12F300730817
:10173000831203172102031D9F2B72082002031836
:10174000A22BA52B0313E30A752BB62B7408003AC2
:1017500003190A2B7408C03A03190A2B7408803A3B
:1017600003193E2B7408403A0319722B031380307F
:10177000F000803065067002031DC02B6408630210
:101780000318C52B6408E300D32B80306506F000F6
:1017900080307002031DCE2B630864020318D32B24
:1017A0006308E400E501660867040319E62B0330CB
:1017B0005F05F0006008F1000030F1057008710469
:1017C0000319E62B0130E602031CE70380306506AF
:1017D000F000803067067002031DF02B660864027B
:1017E0000318F92B6408E602031CE7036508E70207
:1017F000FB2BE601E701C4305F05F1006008083902
:10180000F2007208083A031D072C40307106031DD0
:10181000122C660867040319112C0130E602031C20
:10182000E703322CC0305F05F10060080839F20090
:101830007208083A031D1E2C80307106031D322CDD
:101840008030F000803067067002031D292C660886
:10185000023C0318302C0230E602031CE703322C52
:10186000E601E70103171C08A4008A118E218A15DE
:1018700070089C0003136408F0006508F100013053
:10188000E402031CE503700871040319522DC030F3
:101890005F05F00070080317A300342D03136408DC
:1018A000F0006508F100F00DF10D70104530F00703
:1018B00006300318013EF10770088316CA0071084C
:1018C000CB008A11CD208A150A12F400CA0A031926
:1018D000CB0A8A11CD208A150A12F500831203174C
:1018E0002008F0002108F1008A11D4208A150A305E
:1018F000F4000030F5008A11D4208A157808F00031
:101900007908F10030307007E300452D0313DF1E26
:10191000C72C6408F0006508F100F00DF10D70109F
:101920005730F00706300318013EF10770088316A0
:10193000CA007108CB008A11CD208A150A12F40062
:10194000CA0A0319CB0A8A11CD208A150A12F5009A
:10195000831203172008F0002108F1008A11D42017
:101960008A150F30F0050030F1050C30F007063015
:101970000318013EF10770088316CA007108CB00F6
:101980008A11CD208A150A128312E300042D6408FF
:10199000F0006508F100F00DF10D70105730F00700
:1019A00006300318013EF10770088316CA0071085B
:1019B000CB008A11CD208A150A12F400CA0A031935
:1019C000CB0A8A11CD208A150A12F500831203175B
:1019D0002008F0002108F1008A11D4208A150F3068
:1019E000F0050030F1051D30F00706300318013E08
:1019F000F10770088316CA007108CB008A11CD2048
:101A00008A150A128312E300452D03136408F000BF
:101A10006508F100F00DF10D70102E30F007063062
:101A20000318013EF10770088316CA007108CB0045
:101A30008A11CD208A150A12F400CA0A0319CB0AAA
:101A40008A11CD208A150A12F50083120317200887
:101A5000F0002108F1008A11D4208A1507307005A2
:101A6000E3003030E307452D03172308003A03193C
:101A70004E2C2308C03A03194E2C2308803A031930
:101A8000862C2308403A0319052D03171C088400EF
:101A900003136308800003179C0A0313E10A031968
:101AA000E20A3A2CDF1D712D8030F000803067068D
:101AB0007002031D5D2D6608003C0318712D03178D
:101AC0001C088400203080009C0A0313E10A0319DB
:101AD000E20A0130E602031CE70366086704031DFF
:0E1AE0005F2D06286108F0006208F100080082
:080BA400003400340034003479
:080BAC00003400340034003471
:040BB40000340034D5
:080BB800003400340034003465
:040BC00000340034C9
:040BC40000340034C5
:040BC80000340034C1
:040BCC0000340034BD
:040BD00000340034B9
:020BD4000034EB
:020BD6000034E9
:040BD80000340034B1
:020BDC000034E3
:020BDE000034E1
:020BE0000034DF
:020BE2003034AD
:0A0BE4006E3475346C346C34003448
:040BEE00003400349B
:020BF2000034CD
:020BF4000034CB
:040BF6000034003493
:020BFA000034C5
:040BFC00003400348D
:060C000062343D340034B3
:040C06000034003482
:040C0A00003400347E
:020C0E000034B0
:040C10000034003478
:040C14000034003474
:100C18003034313432343334343435343634373490
:100C28003834393441344234433444344534463416
:020C3800003486
:100C3A00303431343234333434343534363437346E
:100C4A003834393461346234633464346534663434
:020C5A00003464
:100C5C00013400340834003440340034003402349D
:080C6C00003410340034803420
:100C7400613464346434203438342C3430342C34C7
:060C840025346434003445
:100C8A00013400340A34003464340034E834033460
:040C9A0010342734B7
:100C9E0063346C346534203438342C3430340034BE
:100CAE000134003410340034003401340034103474
:080CBE00FF34FF34FF34003461
:080CC600FF34FF34FF34003459
:04400E00F22F000786
:00000001FF
