:040000008A156328D2
:10000800FF00030E83018316AA000A08A9008A01CB
:1000180070088312A1007108A0000408A2008C1EB9
:100028004D281A08B1002808523E84003108800083
:100038002808033C031845282808523E8400000875
:10004800FF3A031D452801302802F000F101031C86
:10005800F1037008523E84000008FF3A031D45284A
:1000680002302802F000F101031CF1037008523E2F
:1000780084000008FF3A031D45280130AB00181220
:100088008B13A80A28081E3A031D4C28AB01A801A7
:100098008C122108F0002008F10022088400831641
:0E00A80029088A002A0E8300FF0E7F0E090031
:0E00B6008312031351088A00500882000800CC
:1000C400822883160313A215BB0A0319BC0AD42879
:1000D40083162214BB0A0319BC0AD4288316A2145B
:1000E400BB0A0319BC0AD4288316A315BB0A031937
:1000F400BC0AD42883162215BB0A0319BC0AD428C7
:10010400831603133B088312D00083163C08831222
:10011400D1005B208A110A12F10071082D3A0319EB
:10012400632883163B088312D00083163C0883128D
:10013400D1005B208A110A12F1007108203A0319D8
:100144006A2883163B088312D00083163C08831266
:10015400D1005B208A110A12F10071082B3A0319AD
:10016400702883163B088312D00083163C08831240
:10017400D1005B208A110A12F1007108233A031995
:10018400762883163B088312D00083163C0883121A
:10019400D1005B208A110A12F1007108303A031968
:1001A4007C28D52862288316A21CD9282210A21DD7
:0E01B400DC2822113B08F0003C08F100080096
:1001C200831603133B08393C031CEE2830303B02F4
:0E01D200031CEE280130F000EF28F0010800B9
:1001E00083120313FB01FA01F9018030F800F10CCE
:1001F000F00C031C04297408F90775080318750F1F
:10020000FA070318FB0A0310F01F0C297408FA07F9
:1002100075080318750FFB07FB0CFA0CF90CF80CAA
:10022000031CF7287B08F3007A08F2007908F10034
:060230007808F000080050
:1002360083160313221D7629A21C3129221C262986
:100246002D30F30028292B30F3003B088400730877
:100256008000BB0AA60A0319A70A6129221C3C29A9
:100266003B08840020308000BB0AA60A0319A70AAF
:100276006129C0302205F10023080839F20072080E
:10028600083A031D482980307106031D61293B0881
:10029600840030308000BB0AA60A0319A70AA21EF2
:1002A60057295830F40059297830F4003B08840067
:1002B60074088000BB0AA60A0319A70A24082504A5
:1002C600031975293B08840030308000BB0AA60A52
:1002D6000319A70A0130A402031CA5032408250458
:1002E600031D6529E4292408250403198C29A2196C
:1002F6008C293B08840020308000BB0AA60A03191B
:10030600A70A0130A402031CA50324082504031D23
:100316007C29A21C9E29221C93292D30F5009529A3
:100326002B30F5003B08840075088000BB0AA60A3E
:100336000319A70AA829221CA8293B0884002030F3
:100346008000BB0AA60A0319A70AC0302205F100DD
:1003560023080839F2007208083A031DB429403010
:100366007106031DBF293B08840030308000BB0A9C
:10037600A60A0319A70AE429C0302205F1002308BA
:100386000839F2007208083A031DCB29803071063D
:10039600031DE4293B08840030308000BB0AA60A0E
:1003A6000319A70AA21EDA295830F600DC2978308C
:1003B600F6003B08840076088000BB0AA60A0319EB
:1003C600A70A8030F000803021067002031DED2957
:1003D600200828020318F8293B08840030308000E2
:1003E600BB0AA60A0319A70AE4293B08F00008007D
:1003F60083120313F801F9011030FC00710DF80D9A
:10040600F90D7408F8027508031C750FF902031834
:10041600132A7408F80775080318750FF9070310EF
:0A042600F00DF10DFC0B012A080097
:100430008316031398181E2A0000182A3308831203
:040440009900080017
:10044400831603133308F2007208F000F20A7008EE
:100454008400000803192F2A262A33087202F000A8
:0C0464000130F002F101031CF10308005C
:10047000831603133308840000083406031D432A3F
:100480003308F0004E2A3308F000B30A70088400E5
:0E0490000008F0007008031D382AF001080073
:10049E0083160313A601A701A201A3013408F000DD
:1004AE003508F100B40A0319B50A70088312D0009A
:1004BE007108D1005B208A110A12F00070088316B1
:1004CE00A800700803191D2F2808253A0319782A49
:1004DE003308840028088000B30AA60A0319A70A65
:1004EE00552AA401A501A201A3013408BB003508B9
:1004FE00BC0062207008B4007108B5007008831249
:10050E00D0007108D1005B208A110A12F000003071
:10051E00F10070088316BB00E12070080319D22A7F
:10052E00A401A5012408F0002508F1000A30F4000A
:10053E000030F500F020831634088312D0008316A5
:10054E0035088312D1005B208A110A12F20072085C
:10055E0070078316A40071080318013EA500303001
:10056E00A402031CA503B40A0319B50A34088312A6
:10057E00D000831635088312D1005B208A110A122F
:10058E00F0000030F10070088316BB00E120700807
:10059E00031D992AF92A34088312D00083163508D0
:1005AE008312D1005B208A110A12F10071082A3AD7
:1005BE00031DF92A8316360884000008F00070081F
:1005CE0084000008A400840A0008A50036088400F0
:1005DE0002300007F0003608840070088000B40A6C
:1005EE000319B50A831634088312D0008316350812
:1005FE008312D1005B208A110A12F10071082E3A83
:10060E00031D722B8316B40A0319B50A340883121C
:10061E00D000831635088312D1005B208A110A128E
:10062E00F10071082A3A031D352B83163608840013
:10063E000008F000700884000008A000840A00087A
:10064E00A1003608840002300007F000360884004E
:10065E0070088000B40A0319B50A712B8316A00125
:10066E00A10134088312D000831635088312D100FD
:10067E005B208A110A12F0000030F1007008831618
:10068E00BB00E12070080319712B2008F00021082F
:10069E00F1000A30F4000030F500F0208316340823
:1006AE008312D000831635088312D1005B208A1185
:1006BE000A12F200720870078316A0007108031860
:1006CE00013EA1003030A002031CA103B40A03199D
:1006DE00B50A382B752B8316A001A1013408F00042
:1006EE003508F100B40A0319B50A70088312D00058
:1006FE007108D1005B208A110A128316A8004F2CB4
:10070E002608F0002708F100212F2217802C802CBC
:10071E00A216A217802C360884000008F00070087C
:10072E0084000008B70036088400000AF00036087E
:10073E008400700880003708003A031DA82B233070
:10074E00B700B801B901380837078400000803194B
:10075E00BD2B3808013EF00000300318013E39076A
:10076E00F1007008B8007108B900AA2B2008210406
:10077E000319CD2B39082102031DC72B380820027F
:10078E000318CD2B2008B8002108B900250839021E
:10079E00031DD32B240838020318DC2B3808A402BF
:1007AE00031CA5033908A502DE2BA401A501A2197D
:1007BE00F52B2408F0002508F1000130A402031CDB
:1007CE00A503700871040319F52B3308840020303B
:1007DE008000B30AA60A0319A70AE02B3808F20014
:1007EE003908F30001303802F0000030031C013EDE
:1007FE003902F1007008B8007108B900720873046C
:10080E0003191A2C370884000008F00033088400FE
:10081E0070088000B30A370AF0007008B700A60A05
:10082E000319A70AF52BA21D312C2408F000250868
:10083E00F1000130A402031CA50370087104031912
:10084E00312C3308840020308000B30AA60A031925
:10085E00A70A1C2C552A360884000008F0007008E0
:10086E0084000008A8003608840002300007F0005B
:10087E003608840070088000A830B7000130B80038
:10088E000030B900BD2BC030A2040030A304802C70
:10089E002808003A0319872B28086C3A03198C2B69
:1008AE0028084C3A03198C2B28086F3A03198C2B05
:1008BE002808643A03198E2B2808693A03198E2BDF
:1008CE002808703A03198F2B2808583A03198F2BD2
:1008DE002808783A0319902B2808733A0319922B9B
:1008EE002808633A0319322C2808753A03194A2C42
:1008FE00432CC0302205F1002308F2000030F2052F
:10090E0000307206031D8D2C00307106031DBF2CA6
:10091E00360884000008F000700884000008B70054
:10092E00840A0008B8003608840002300007F00080
:10093E00360884007008800080303806F000803061
:10094E007002031DAC2C003037020318BE2C03308E
:10095E00A2040030A3043708003CF0003808031C42
:10096E00013EF101F1027008B7007108B800D32CF6
:10097E00360884000008F000700884000008B700F4
:10098E00840A0008B8003608840002300007F00020
:10099E00360884007008800000302106031DD92C13
:1009AE0000302006031DE62C00303806031DE12C16
:1009BE0000303706031DE62CA00A0319A10AC03029
:1009CE002205F0007008F400792D0130A8002808E7
:1009DE00053A03191A2D2808F000F101F00DF10D5A
:1009EE007010F230F00708300318013EF10770085E
:1009FE008312D0007108D1005B208A110A12F20016
:100A0E00D00A0319D10A5B208A110A12F300730867
:100A1E0083163802031D152D720837020318182D80
:100A2E001A2DA80AEE2C892D0130A8002808043AA8
:100A3E000319492D2808F000F101F00DF10D701089
:100A4E00F730F00707300318013EF10770088312E4
:100A5E00D0007108D1005B208A110A12F200D00A70
:100A6E000319D10A5B208A110A12F3007308831648
:100A7E003802031D442D720837020318472D492DE5
:100A8E00A80A1D2D892D0130A8002808063A031941
:100A9E00782D2808F000F101F00DF10D7010DB300B
:100AAE00F00708300318013EF10770088312D000DA
:100ABE007108D1005B208A110A12F200D00A0319C4
:100ACE00D10A5B208A110A12F300730883163802CA
:100ADE00031D732D720837020318762D782DA80A80
:100AEE004C2D892D7408003A0319EC2C7408C03A69
:100AFE000319EC2C7408803A03191B2D7408403A24
:100B0E0003194A2D8030F000803021067002031D3B
:100B1E00922D200828020318972D2008A800A52D35
:100B2E0080302106F00080307002031DA02D2808B1
:100B3E0020020318A52D2808A000A10124082504D1
:100B4E000319B82D03302205F0002308F100003000
:100B5E00F105700871040319B82D0130A402031CAD
:100B6E00A50380302106F000803025067002031D9B
:100B7E00C22D240820020318CB2D2008A402031C2A
:100B8E00A5032108A502CD2DA401A501C43022057F
:100B9E00F10023080839F2007208083A031DD92D16
:100BAE0040307106031DE42D240825040319E32D9E
:100BBE000130A402031CA503042EC0302205F1004F
:100BCE0023080839F2007208083A031DF02D803010
:100BDE007106031D042E8030F00080302506700251
:100BEE00031DFB2D2408023C0318022E0230A40222
:100BFE00031CA503042EA401A5013308BB001B2171
:100C0E007008B3002008F0002108F1000130A002A6
:100C1E00031CA103700871040319FF2EC0302205B6
:100C2E00F0007008BA00E62E2008F0002108F1004E
:100C3E00F00DF10D7010F230F00708300318013E80
:100C4E00F10770088312D0007108D1005B208A1161
:100C5E000A12F400D00A0319D10A5B208A110A1273
:100C6E00F50083163708F0003808F100FB210A3032
:100C7E00F4000030F500FB217808F0007908F1004F
:100C8E00303070078316A800F62EA21E852E20087F
:100C9E00F0002108F100F00DF10D7010F730F007A3
:100CAE0007300318013EF10770088312D000710857
:100CBE00D1005B208A110A12F400D00A0319D10A5E
:100CCE005B208A110A12F50083163708F0003808E7
:100CDE00F100FB210F30F0050030F105AA30F007CE
:100CEE0008300318013EF1077008D0007108D100DA
:100CFE005B208A110A128316A800BB2E2008F00072
:100D0E002108F100F00DF10D7010F730F0070730EB
:100D1E000318013EF10770088312D0007108D1004C
:100D2E005B208A110A12F400D00A0319D10A5B2043
:100D3E008A110A12F50083163708F0003808F10000
:100D4E00FB210F30F0050030F105BB30F007083005
:100D5E000318013EF1077008D0007108D1005B2026
:100D6E008A110A128316A800F62E2008F000210818
:100D7E00F100F00DF10D7010DB30F00708300318A4
:100D8E00013EF10770088312D0007108D1005B207C
:100D9E008A110A12F400D00A0319D10A5B208A11B3
:100DAE000A12F50083163708F0003808F100FB210F
:100DBE00073070058316A8003030A807F62E3A08C3
:100DCE00003A03191B2E3A08C03A03191B2E3A0893
:100DDE00803A03194C2E3A08403A0319BC2E3308B8
:100DEE00840028088000B30AA60A0319A70A092E50
:100DFE00A21D1C2F8030F000803025067002031DCE
:100E0E000A2F2408003C03181C2F330884002030BE
:100E1E008000B30AA60A0319A70A0130A402031C14
:100E2E00A50324082504031D0C2F552A2608F000BF
:060E3E002708F100080086
:100E4400831603133508F000B503700803194A2FFD
:100E5400330884000008003A03193B2F3408840047
:100E64000008F1003308840000087106031D3B2FBD
:100E7400472F330884000008F00034088400000879
:100E8400F002F101031CF1034C2FB30AB40A222F20
:060E9400F001F10108006D
:100E9A00831603132B08003A0319772F2B088400B3
:100EAA0000080319772F2C08B30022227008B50016
:100EBA002B08B3002C08B400222700307106031D4A
:100ECA00682F00307006031D6D2F2B08F000782F55
:100EDA002B0AB3002C0884000008B40038227008DA
:080EEA00AB004D2FF0010800E0
:100EF20083160313AD012B0884000008AC002C08F4
:100F0200003A03198F2F2C08B30018228316AD0A5A
:0E0F12002D082B0784000008AC00802F08007B
:100F2000831603132B088312D00083162C08831218
:100F3000D1005B208A110A12F00070080319B32F48
:100F400083162B088312D00083162C088312D1003D
:100F50005B208A110A128316B30018228316AB0A8B
:080F60000319AC0A902F0800F0
:100F6800831603132B08F2002D08F0002E08F10059
:100F78000130AD02031CAE03700871040319CA2FB7
:100F8800720884002C088000F20AB82F2B08F000A1
:020F980008004F
:100F9A00AE3083160313B2002B08B3002C08B4003A
:100FAA002D08B500B230B6004F227008B0007108A3
:100FBA00B10070082B07840080013008F000310866
:040FCA00F10008002A
:100FCE008316031398169030831298008316871792
:100FDE00071383128C1EF62F1A08F000F02F08004C
:10100000831203132B08013A031D21285230831643
:10101000AB002C30AC008A114D278A1570080319DB
:1010200011285230AB00AC011E30AD000030AE00D4
:101030008A11B4278A158312A801AB018C121816E5
:041040008B17080002
:1010440083120313A901AA0180302A06F00080301C
:101054007002031D2F28FF3029020318552832304F
:101064008316AB00E730AC000830AD0083122908CA
:101074008316AE0083122A088316AF008A11CD2787
:101084008A153230AB008A1179278A15FC30AB00FF
:101094000830AC008A1190278A1583120313A90A19
:0810A4000319AA0A262808001E
:1010AC008A115B208A150A128000840AD00A03195F
:0A10BC00D10AF003031D56280800B6
:1010C6000021831603178801890183120313850102
:1010D60088018701860189018316850186018801B9
:1010E6008901071387178312A801333083169900E5
:1010F60018158A11E7278A1532308316AB00AC0122
:101106001E30AD000030AE008A11B4278A15831256
:101116008C1283168C160B178B1722202B0803199B
:10112600A32800200B30FB002630FC005D30FD00BC
:10113600FD0B9B28FC0B9B28FB0B9B28000000004B
:041146009028A42821
:10120000233084000F3083120313F000CC30D00061
:081210000830D100562008004F
:100FEE000134003410340034003401340034103431
:10115400303431343234333434343534363437344F
:1011640038343934413442344334443445344634D5
:02117400003445
:10117600303431343234333434343534363437342D
:1011860038343934613462346334643465346634F3
:02119600003423
:0A1198006E3475346C346C3400348E
:0211A200003417
:0411A40000340034DF
:0211A800003411
:0A11AA004434413443343D34003432
:0211B400003405
:1011B600013400340834003440340034003402343E
:0811C6000034103400348034C1
:1011CE00613464346434203431342C3430342C346F
:0611DE00253464340034E6
:1011E400013400340A34003464340034E834033401
:0411F4001034273458
:0811F800FF34FF34FF34003422
:04400E00F22F000786
:00000001FF
