:040000008A15A32E8C
:10000800FF00030E83018316C6000A08C9008A018F
:1000180070088312A4007108A3007208A200730874
:10002800A1000408A5008C1E53281A08BF00640804
:10003800CA3E84003F0880006408033C031849282E
:100048006408CA3E84000008FF3A031D49280130AD
:100058006402F000F101031CF1037008CA3E840039
:100068000008FF3A031D492802306402F000F1013C
:10007800031CF1037008CA3E84000008FF3A031D00
:1000880049280130EA0018128B13E40A64081E3A62
:10009800031D5228EA01E401E201E3018C120B1D61
:1000A800BB280130E2000030E3002B08F0002C08E8
:1000B800F1002D08F2002E08F300F00A0319F10AE6
:1000C8000319F20A0319F30A7008AB007108AC00AF
:1000D8007208AD007308AE000B11063081000030C5
:1000E800F0002E06031D822870082D06031D8228A5
:1000F80003302C06031D82282B08E83A031D9F288D
:100108004608F0004708F1004808F2004908F300E3
:10011800F00A0319F10A0319F20A0319F30A70081D
:10012800C6007108C7007208C8007308C900AB018F
:10013800AC01AD01AE010030E11BFF30F000490613
:10014800031DB02870084806031DB028610847063B
:10015800031DB02846086006031DBB280130C000F7
:100168000030C10083168101831281018B012408AC
:10017800F0002308F1002208F2002108F300250806
:100188008400831649088A00460E8300FF0E7F0EFE
:0201980009005C
:0E019A008316031348088A00470882000800F5
:1001A800FD2883120313EE1503179A0A03199B0AF5
:1001B8006229831203136E1403179A0A03199B0A00
:1001C800622983120313EE1403179A0A03199B0A70
:1001D800622983120313EF1503179A0A03199B0A5E
:1001E8006229831203136E1503179A0A03199B0ACF
:1001F8006229831203171A0883160313C700831290
:1002080003171B0883160313C800CD208A110A128E
:10021800F10071082D3A0319D528831203171A081B
:1002280083160313C700831203171B0883160313CF
:10023800C800CD208A110A12F1007108203A03196A
:10024800DD28831203171A0883160313C7008312C5
:1002580003171B0883160313C800CD208A110A123E
:10026800F10071082B3A0319E528831203171A08BD
:1002780083160313C700831203171B08831603137F
:10028800C800CD208A110A12F1007108233A031917
:10029800ED28831203171A0883160313C700831265
:1002A80003171B0883160313C800CD208A110A12EE
:1002B800F1007108303A0319F5286329D42803138B
:1002C8008312EE1C68296E10EE1D6B296E11031740
:0A02D8001A08F0001B08F1000800EE
:1002E200831203171A08393C031C7E2930301A0284
:0E02F200031C7E290130F0007F29F001080076
:1003000083120313FB01FA01F9018030F800F10CAC
:10031000F00C031C94297408F90775080318750F6D
:10032000FA070318FB0A0310F01F9C297408FA0748
:1003300075080318750FFB07FB0CFA0CF90CF80C89
:10034000031C87297B08F3007A08F2007908F10082
:060350007808F00008002F
:10035600831203136E1D132AEE1CC3296E1CB629C5
:100366002D30F300B8292B30F30003171A08840048
:10037600730880009A0A0313EC0A0319ED0AF92997
:100386006E1CD02903171A088400203080009A0AB0
:100396000313EC0A0319ED0AF929C0306E05F100C2
:1003A6006F080839F2007208083A031DDC2980300C
:1003B6007106031DF92903171A08840030308000DE
:1003C6009A0A0313EC0A0319ED0AEE1EED295830BA
:1003D600F400EF297830F40003171A088400740833
:1003E60080009A0A0313EC0A0319ED0A83164408DF
:1003F60045040319122A831203171A0884003030A1
:1004060080009A0A0313EC0A0319ED0A01308316D9
:10041600C402031CC50344084504031DFE29922A91
:1004260083164408450403192F2A8312EE192F2A2E
:10043600831203171A088400203080009A0A0313D7
:10044600EC0A0319ED0A01308316C402031CC50326
:1004560044084504031D1B2A8312EE1C442A6E1C05
:10046600372A2D30F500392A2B30F50003171A08E4
:100476008400750880009A0A0313EC0A0319ED0A32
:10048600502A6E1C502A03171A0884002030800058
:100496009A0A0313EC0A0319ED0AC0306E05F1003F
:1004A6006F080839F2007208083A031D5C2A4030CA
:1004B6007106031D692A03171A088400303080006C
:1004C6009A0A0313EC0A0319ED0A922AC0306E0544
:1004D600F1006F080839F2007208083A031D752A00
:1004E60080307106031D922A03171A0884003030E3
:1004F60080009A0A0313EC0A0319ED0AEE1E862AF7
:100506005830F600882A7830F60003171A08840057
:10051600760880009A0A0313EC0A0319ED0A803064
:10052600F0008030831642067002031D9C2A4108A3
:1005360043020318AA2A831203171A0884003030CC
:1005460080009A0A0313EC0A0319ED0A922A831211
:0805560003171A08F000080069
:10055E0083120313F801F9011030FC00710DF80D30
:10056E00F90D7408F8027508031C750FF9020318CB
:10057E00C72A7408F80775080318750FF9070310D2
:0A058E00F00DF10DFC0BB52A08007A
:100598000E3083120313FD00FD0BD02A0000080063
:1005A800831603139818DA2A0000D42A8312031733
:0805B80012080313990008006A
:1005C000831203171208F2007208F000F20A700892
:1005D000840000080319ED2AE42A12087202F000D0
:0C05E0000130F002F101031CF1030800DF
:1005EC00831203171408F0009403700803191E2BD0
:1005FC00120884000008003A03190F2B130884001A
:10060C000008F1001208840000087106031D0F2B6E
:10061C001B2B120884000008F0001308840000084B
:10062C00F002F101031CF103202B920A930AF62A23
:06063C00F001F1010800CD
:10064200831203171208840000081306031D2C2BC3
:100652001208F000372B1208F000920A700884008A
:0E0662000008F0007008031D212BF0010800B5
:10067000ED3083160313EF006A088312031792000C
:10068000831603136B088312031793008316031357
:100690006C08831203179400EF3095008A15002030
:1006A0008A11700803179000710891007008831672
:1006B00003136A0784008001831203171008F000F7
:0606C0001108F100080022
:1006C600831603136A08F2006C08F0006D08F10047
:1006D6000130EC02031CED03700871040319792B39
:1006E600720884006B088000F20A672B6A08F00023
:0206F6000800FA
:1006F800831203132230FC00F801F901FA01FB010F
:10070800FC030319B22B0310FB0CFA0CF90CF80CC0
:10071800F30CF20CF10CF00C031C842BFC030319F2
:10072800A42B7408F80775080318750FF9077608DD
:100738000318760FFA0777080318770FFB07882B3B
:100748007408F80775080318750FF9077608031871
:0E075800760FFA0777080318770FFB070800E3
:10076600831603136A08003A0319F32B6A088400F8
:1007760000080319F32B6B08831203179200E0227B
:1007860070089400831603136A08831203179200F5
:10079600831603136B08831203179300F6220030A7
:1007A6007106031DD82B00307006031DDF2B831640
:1007B60003136A08F000F42B831603136A0A8312E4
:1007C60003179200831603136B0884000008831234
:1007D600031793002123700883160313EA00B32B33
:0407E600F001080016
:1007EA00C330831203139F05C0309F0083166A0823
:1007FA00F000F00D7010F00D7010700883129F0455
:10080A004A09F000700883169F059F1783121F1468
:10081A00CC229F149F1C132C00000F2C1F101E08A3
:10082A00F100F00183161E08F0040030F1040800FC
:10083A00831603178C1C232C00001D2C03136A0833
:10084A00831203178D00831603136B088312031791
:10085A008C0083168C130C150B08F0008B13553083
:10086A008D00AA308D008C14F01B3D2C8B133E2C6E
:06087A008B170C110800B1
:1008800083120313FB01FA01F901F801A001730DB2
:10089000F80D7408F8027508031C750FF902760844
:1008A000031C760FFA027708031C770FFB02000186
:1008B000031C0130A002F30D0730FC00730DF80D8E
:1008C000F90DFA0DFB0DA00D7408731C792CF802BC
:1008D0007508031C750FF9027608031C760FFA02DF
:1008E0007708031C770FFB020001031C0130A002F4
:1008F0008A2CF80775080318750FF907760803188E
:10090000760FFA0777080318770FFB070001031823
:100910000130A007F30DFC0B5E2C720DF80DF90DE4
:10092000FA0DFB0DA00D7408731CA82CF8027508B5
:10093000031C750FF9027608031C760FFA0277087C
:10094000031C770FFB020001031C0130A002B92C2D
:10095000F80775080318750FF90776080318760F5E
:10096000FA0777080318770FFB0700010318013017
:10097000A007F20D0730FC00720DF80DF90DFA0D0D
:10098000FB0DA00D7408721CD72CF8027508031C0F
:10099000750FF9027608031C760FFA027708031C1C
:1009A000770FFB020001031C0130A002E82CF807BE
:1009B00075080318750FF90776080318760FFA07FC
:1009C00077080318770FFB07000103180130A00711
:1009D000F20DFC0BBC2C710DF80DF90DFA0DFB0D91
:1009E000A00D7408721C062DF8027508031C750F03
:1009F000F9027608031C760FFA027708031C770FBA
:100A0000FB020001031C0130A002172DF807750836
:100A10000318750FF90776080318760FFA07770899
:100A20000318770FFB07000103180130A007F10D31
:100A30000730FC00710DF80DF90DFA0DFB0DA00D3E
:100A40007408711C352DF8027508031C750FF90226
:100A50007608031C760FFA027708031C770FFB0257
:100A60000001031C0130A002462DF8077508031889
:100A7000750FF90776080318760FFA077708031839
:100A8000770FFB07000103180130A007F10DFC0BE5
:100A90001A2D700DF80DF90DFA0DFB0DA00D74084F
:100AA000711C642DF8027508031C750FF902760895
:100AB000031C760FFA027708031C770FFB02000174
:100AC000031C0130A002752DF80775080318750F77
:100AD000F90776080318760FFA0777080318770FD7
:100AE000FB07000103180130A007F00D0730FC00E0
:100AF000700DF80DF90DFA0DFB0DA00D7408701CAA
:100B0000932DF8027508031C750FF9027608031C73
:100B1000760FFA027708031C770FFB020001031C13
:100B20000130A002A42DF80775080318750FF90706
:100B300076080318760FFA0777080318770FFB0774
:100B4000000103180130A007F00DFC0B782D701880
:100B5000B72D7408F80775080318750FF90776089C
:100B60000318760FFA0777080318770FFB070800BA
:100B700083160313EC016A0884000008EB006B087D
:100B8000003A0319D02D6B08831203179200D42268
:100B90008316EC0A6C086A0784000008EB00BF2D7E
:020BA00008004B
:100BA200831603136A08C7006B08C800CD208A1198
:100BB2000A12F00070080319EE2D6A08C7006B08CC
:100BC200C800CD208A110A12831203179200D42280
:0C0BD2008316EA0A0319EB0AD12D080073
:100BDE00831603136A0884000008EB00EC01003052
:100BEE00EC0000306C06031DFE2D20306B06031941
:100BFE00092E00306C06031D062E09306B060319F4
:100C0E00092E0B2EEA0AEF2DED01EE0183120317CA
:100C1E00900191010030831603136C06031D192EEB
:100C2E002D306B06031D242E83120317900A031911
:100C3E00910A83160313EA0A2D2E00306C06031D4B
:100C4E002A2E2B306B06031D2D2EEA0A6A0884000D
:100C5E000008EB00EC010030EC006B088312031768
:100C6E009A007121700803195A2E831603136D080A
:100C7E00F0006E08F1000A30F4000030F50080211B
:100C8E00303083166B02F2000030031C013E6C0202
:100C9E00F30072087007ED0071080318013E730728
:100CAE00EE00EA0A2D2E8312031710081104031901
:100CBE006B2E831603136D08003CF0006E08031CA8
:100CCE00013EF101F102712E831603136D08F0003F
:060CDE006E08F1000800A1
:100CE400831603136A08831203178D0083168C136B
:0A0CF4000C1483120C08F000080035
:100CFE00831203136008F4006108F5000030F51B41
:100D0E00FF30F600F7003708F0003808F100390818
:100D1E00F2003A08F30040247008B7007108B800DA
:100D2E007208B9007308BA008316EA0172267008B9
:100D3E0083160313E800E901E80DE90D6810E80DCC
:100D4E00E90D681068088312BD00831669088312C6
:100D5E00BE003708F0003808F1003908F2003A08F2
:100D6E00F3008830F4001330F500F601F7017C2310
:100D7E007008C2007108C3007208C4007308C50071
:100D8E00FF30F4000330F500F601F701402470083F
:100D9E00C2007108C3007208C4007308C500E830B1
:100DAE00F4000330F500F601F70140247008EB0063
:100DBE0083166808013EF40000300318013E6907EF
:100DCE00F50074088312BD007508BE007408831602
:100DDE00EA007008EB001D243430FC00F130FD00F9
:100DEE00FD0BF72EFC0BF72E000000006430F40014
:100DFE00F501F601F701831203134208F0004308D0
:100E0E00F1004408F2004508F30040240A30F400D3
:100E1E00F501F601F70140247808F0007908F10099
:100E2E007A08F2007B08F3007008EB00BD0A031984
:100E3E00BE0A3D088316EA007008EB001D2434300C
:100E4E00FC00F130FD00FD0B2A2FFC0B2A2F0000B9
:100E5E0000000A30F400F501F601F70183120313C6
:100E6E004208F0004308F1004408F2004508F30080
:100E7E0040240A30F400F501F601F7014024780809
:100E8E00F0007908F1007A08F2007B08F300700890
:100E9E00EB00BD0A0319BE0A3D088316EA0070086E
:100EAE00EB001D243430FC00F130FD00FD0B5D2FF6
:100EBE00FC0B5D2F000000000A30F400F501F60176
:100ECE00F701831203134208F0004308F1004408AF
:100EDE00F2004508F30040247808F0007908F1008C
:100EEE007A08F2007B08F3007008EB00BD0A0319C4
:100EFE00BE0A3D088316EA007008EB001D2434304C
:100F0E00FC00F130FD00FD0B8A2FFC0B8A2F000038
:100F1E0000000313EA01722670080313EB00F00AB7
:100F2E007008EB008316EA017008EB001D24831293
:0C0F3E000313B701B801B901BA010800A3
:100F4A0083120313E401EA01BF01BD01BE01E201FC
:100F5A00E301C001C101E501E601A801A901AA0155
:100F6A00A601A701B301B401BB01BC01B501B601D9
:100F7A00AB01AC01AD01AE01AF01B001B101B201EB
:100F8A00C601C701C801C901D301D401D501D601DF
:100F9A00D001D101D201DB01DC01BD01BE01E001BA
:0C0FAA00E101D701D801D901DA010800EB
:100FB600FF3083160313BE00FF30BF00FF30C000B2
:100FC600FF30C33083129F05C0309F004A09F000EE
:0E0FD600700883169F059F1783121F140800D2
:100FE400CD208A110A128000840AC70A0319C80A8C
:080FF400F003031DF22F0800B9
:1010000083120313EC01ED01EE01EF0103178312CC
:101010001308F0001408F100930A0319940A7008E9
:1010200083160313C7007108C8008A11CD208A15E2
:101030000A12F0007008C30070080319BC2D4308A1
:10104000253A0319332883120317120884008316E4
:1010500003134308800083120317920A0313EC0A58
:101060000319ED0A06288316C401C5018312EE0197
:10107000EF01031713089A0014089B008A11D4206B
:101080008A15700893007108940070088316031382
:10109000C7007108C8008A11CD208A150A12F00015
:1010A0000030F1007008831203179A008A11712131
:1010B0008A1570080319A92883160313C401C501F2
:1010C000831603134408F0004508F1000A30F400C9
:1010D0000030F5008A1180218A1503171308831642
:1010E0000313C70083120317140883160313C800E1
:1010F0008A11CD208A150A12F20072087007C40006
:1011000071080318013EC5003030C402031CC5033A
:1011100083120317930A0319940A130883160313FF
:10112000C70083120317140883160313C8008A111B
:10113000CD208A150A12F0000030F10070088312E9
:1011400003179A008A1171218A157008031D6028FF
:10115000D928130883160313C70083120317140832
:1011600083160313C8008A11CD208A150A12F100D4
:1011700071082A3A031DD928831203171508840021
:101180000008F00070088400000883160313C400F0
:10119000840A0008C5008312031715088400023072
:1011A0000007F0001508840070088000930A0319F6
:1011B000940A83120317130883160313C7008312BC
:1011C0000317140883160313C8008A11CD208A154B
:1011D0000A12F10071082E3A031D742983120317B5
:1011E000930A0319940A130883160313C700831282
:1011F0000317140883160313C8008A11CD208A151B
:101200000A12F10071082A3A031D242983120317D8
:10121000150884000008F000700884000008831698
:101220000313C100840A0008C200831203171508C3
:10123000840002300007F000150884007008800068
:10124000930A0319940A732983160313C101C20177
:1012500083120317130883160313C700831203179F
:10126000140883160313C8008A11CD208A150A12A8
:10127000F0000030F1007008831203179A008A1101
:1012800071218A1570080319732983160313410805
:10129000F0004208F1000A30F4000030F5008A1135
:1012A00080218A150317130883160313C7008312BE
:1012B0000317140883160313C8008A11CD208A155A
:1012C0000A12F20072087007C10071080318013E8B
:1012D000C2003030C102031CC20383120317930AF9
:1012E0000319940A2829782983160313C101C2011E
:1012F000831203171308F0001408F100930A03196E
:10130000940A700883160313C7007108C8008A1175
:10131000CD208A150A12C300922A83126C08F000AD
:101320006D08F100C12D83126E17C42AC42A8312DE
:10133000EE168312EE17C42A8312031715088400D1
:101340000008F0007008840000089600150884006A
:10135000000AF00015088400700880001608003AA2
:10136000031DB4294B309600970198011708160702
:10137000840000080319C9291708013EF000003055
:101380000318013E1807F1007008970071089800D3
:10139000B62983160313410842040319E92983126D
:1013A00003171808831603134202031DDD29831255
:1013B000031717088316031341020318E92941088C
:1013C000831203179700831603134208831203172F
:1013D0009800831603134508831203171802031D90
:1013E000F7298316031344088312031717020318FF
:1013F000062A170883160313C402031CC5038312AD
:101400000317180883160313C5020A2A8316031349
:10141000C401C5018312EE19262A83164408F00080
:101420004508F1000130C402031CC50370087104B3
:101430000319262A83120317120884002030800023
:10144000920A0313EC0A0319ED0A0D2A03178312FB
:101450001708F2001808F30001301702F0000030FE
:10146000031C013E1802F1007008970071089800F3
:101470007208730403194E2A160884000008F0004D
:101480001208840070088000920A160AF0007008A2
:1014900096000313EC0A0319ED0A262A0313EE1D26
:1014A0006A2A83164408F0004508F1000130C4029E
:1014B000031CC5037008710403196A2A83120317F9
:1014C0001208840020308000920A0313EC0A0319EA
:1014D000ED0A512A06288312031715088400000814
:1014E000F00070088400000883160313C300831201
:1014F00003171508840002300007F0001508840067
:101500007008800083120317C330960001309700E3
:1015100000309800C9298312C0300313EE04003054
:10152000EF04C42A83164308003A03198D2943089F
:101530006C3A0319932943084C3A03199329430839
:101540006F3A031993294308643A0319962943080B
:10155000693A031996294308703A031997294308F1
:10156000583A031997294308783A031999294308E7
:10157000733A03199C294308633A03196B2A4308F9
:10158000753A03198B2A822AC03083126E05F10046
:101590006F08F2000030F20500307206031DD22AF7
:1015A00000307106031D072B03171508840000087F
:1015B000F0007008840000089600840A0008970074
:1015C0001508840002300007F00015088400700838
:1015D000800080301706F00080307002031DF22A70
:1015E000003016020318062B03300313EE040030FC
:1015F000EF0403171608003CF0001708031C013E17
:10160000F101F10270089600710897001C2B031776
:10161000150884000008F000700884000008960097
:10162000840A000897001508840002300007F000C3
:1016300015088400700880000030831603134206EA
:10164000031D242B00304106031D352B003083126F
:1016500003171706031D2E2B00301606031D352B0E
:1016600083160313C10A0319C20A0313C03083127D
:101670006E05F0007008F400DC2B031301308316B4
:10168000C3004308053A0319712B4308F000F10128
:10169000F00DF10D70105F30F0070F300318013EB0
:1016A000F1077008C7007108C8008A11CD208A159B
:1016B0000A12F200C70A0319C80A8A11CD208A1536
:1016C0000A12F3007308831203171702031D6A2B13
:1016D0007208160203186D2B712B83160313C30AAD
:1016E000412BEC2B831603130130C3004308043A4B
:1016F0000319A62B4308F000F101F00DF10D701055
:101700007230F0070F300318013EF1077008C70070
:101710007108C8008A11CD208A150A12F200C70A82
:101720000319C80A8A11CD208A150A12F30073081A
:10173000831203171702031D9F2B7208160203184A
:10174000A22BA62B83160313C30A762BEC2B83162E
:1017500003130130C3004308063A0319DB2B430887
:10176000F000F101F00DF10D70105330F0070F3063
:101770000318013EF1077008C7007108C8008A11FC
:10178000CD208A150A12F200C70A0319C80A8A1165
:10179000CD208A150A12F30073088312031717026B
:1017A000031DD42B720816020318D72BDB2B8316CC
:1017B0000313C30AAB2BEC2B7408003A03193D2B1F
:1017C0007408C03A03193D2B7408803A0319722B30
:1017D0007408403A0319A72B831603138030F000D6
:1017E000803042067002031DF72B410843020318A4
:1017F000FC2B4108C3000A2C80304206F0008030E8
:101800007002031D052C4308410203180A2C4308EB
:10181000C100C2014408450403191F2C0330831280
:101820006E05F0006F08F1000030F10570087104DA
:1018300003191F2C01308316C402031CC503831631
:1018400080304206F000803045067002031D2A2CCD
:10185000440841020318332C4108C402031CC50389
:101860004208C502352CC401C501C43083126E057F
:10187000F1006F080839F2007208083A031D422C83
:1018800040307106031D4E2C83164408450403198D
:101890004D2C0130C402031CC503702CC0308312D0
:1018A0006E05F1006F080839F2007208083A031D4E
:1018B0005B2C80307106031D702C8030F00080306E
:1018C000831645067002031D672C4408023C03186A
:1018D0006E2C0230C402031CC503702CC401C50168
:1018E0008312031712089A008A11AB218A15700817
:1018F0009200831603134108F0004208F100013002
:10190000C102031CC203700871040319982DC03072
:1019100083126E05F000700803179900762D831668
:1019200003134108F0004208F100F00DF10D7010B2
:101930005F30F0070F300318013EF1077008C70051
:101940007108C8008A11CD208A150A12F400C70A4E
:101950000319C80A8A11CD208A150A12F5008312CC
:1019600003171608F0001708F1008A11AF228A1534
:101970000A30F4000030F5008A11AF228A15780889
:10198000F0007908F100303070078316C300882D0D
:1019900003138312EE1E092D83164108F00042083E
:1019A000F100F00DF10D70107230F0070F300318D8
:1019B000013EF1077008C7007108C8008A11CD20E8
:1019C0008A150A12F400C70A0319C80A8A11CD2021
:1019D0008A150A12F500831203171608F00017087B
:1019E000F1008A11AF228A150F30F0050030F105A1
:1019F0003130F0070F300318013EF10770088316ED
:101A0000C7007108C8008A11CD208A150A12C300C8
:101A1000452D83164108F0004208F100F00DF10D4C
:101A200070107230F0070F300318013EF107700894
:101A3000C7007108C8008A11CD208A150A12F40067
:101A4000C70A0319C80A8A11CD208A150A12F5009F
:101A5000831203171608F0001708F1008A11AF224D
:101A60008A150F30F0050030F1054230F0070F30D5
:101A70000318013EF10770088316C7007108C800FB
:101A80008A11CD208A150A12C300882D83160313EC
:101A90004108F0004208F100F00DF10D70105330D4
:101AA000F0070F300318013EF1077008C7007108F6
:101AB000C8008A11CD208A150A12F400C70A03193A
:101AC000C80A8A11CD208A150A12F500831203175D
:101AD0001608F0001708F1008A11AF228A150730A6
:101AE00070058316C3003030C307882D8312031797
:101AF0001908003A03198F2C1908C03A03198F2CC2
:101B00001908803A0319C82C1908403A0319462DC0
:101B100083120317120884008316031343088000FE
:101B200083120317920A0313EC0A0319ED0A792CA6
:101B30008312EE1DBB2D8030F000803083164506E9
:101B40007002031DA52D4408003C0318BB2D831211
:101B500003171208840020308000920A0313EC0A55
:101B60000319ED0A01308316C402031CC50344089F
:101B70004504031DA72D062883126C08F0006D088C
:041B8000F100080068
:101B840083160313EA018A11F5238A157008831258
:101B9400BB007108BC00FF30F400F5018A118021FC
:101BA4008A15FF30F4000330F5008A11AF228A153C
:101BB4007008BD007108BE00A0308316EA006930C9
:101BC400EB000F30EC008A1138238A15A0308316FD
:101BD4000313EA008A11B8258A15A030EA007E3082
:101BE400EB000F30EC0083123D088316ED008312E6
:101BF4003E088316EE008A1138238A15A030831616
:101C04000313EA008A11B8258A157A30EA000F30E6
:101C1400EB008A11D1258A1583123D08F0003E0895
:101C2400F1000030F11BFF30F200F3003708F00739
:101C340038080318380FF10739080318390FF20769
:101C44003A0803183A0FF3077008B7007108B80090
:0A1C54007208B9007308BA00080016
:101C5E00831203136A08013A031D922ECA308316AB
:101C6E00EA006730EB008A11B3238A157008031956
:101C7E006C2E01308312E2000030E3008316EA017D
:101C8E008A11EF258A157008E8007108E9004D08E1
:101C9E00F100F0017008EA008A11EF258A1570082C
:101CAE00E80771080318013EE9074E08EA008A1199
:101CBE00EF258A15700868078312E00083166908FD
:101CCE000318013E71078312E100CA308316EA0041
:101CDE005D30EB008A11B3238A1570080319812E2B
:101CEE004C08EA008A11EF258A1570088312E50068
:101CFE007108E600CA308316EA00EB011E30EC00D4
:101D0E000030ED008A1163238A158312E401EA0183
:081D1E008C1218168B17080047
:101D2600831603139816903083129800831687172C
:101D3600071383128C1EA22E1A08F0009C2E080090
:101D46008227FF3083160317880089010D3003139D
:101D5600850086018030870088018901831285010C
:101D66008801870186018901E401333083169900D1
:101D760018159326A0308316EA00EB011E30EC00FE
:101D86000030ED008A1163238A158A11DB278A1534
:101D96008C1283168C160B178B1783126A0803197D
:101DA600D52E2F26620863040319DB2EC225E52EE5
:101DB600400841040319E52E8A117F268A158A11E7
:081DC600A5278A15D02EE62E98
:101F040026308400453083120313F000EC3083162E
:0E1F1400C7000E30C8008A11F2278A15080097
:021DD8000034D5
:021DDA000034D3
:041DDC00003400349B
:021DE0000034CD
:081DE200003400340034003429
:081DEA00003400340034003421
:041DF2000034003485
:041DF6000034003481
:081DFA00003400340034003411
:041E02000034003474
:041E06000034003470
:021E0A000034A2
:041E0C00003400346A
:081E10000034003400340034FA
:081E18000034003400340034F2
:021E200030345C
:0A1E22006E3475346C346C340034F7
:041E2C00003400344A
:021E300000347C
:041E32000034003444
:041E36000034003440
:041E3A00003400343C
:041E3E000034003438
:021E420000346A
:021E4400003468
:061E460062343D3400345B
:041E4C00003400342A
:041E50000034003426
:021E5400003458
:041E56000034003420
:061E5A0074343D34003435
:021E600000344C
:101E62003034313432343334343435343634373434
:101E720038343934413442344334443445344634BA
:021E820000342A
:101E84003034313432343334343435343634373412
:101E940038343934613462346334643465346634D8
:021EA400003408
:101EA6000134003408340034403400340034023441
:081EB6000034103400348034C4
:101EBE00013400340A34003464340034E83403341A
:041ECE001034273471
:101ED200613464346434203438342C3430342C3457
:021EE2000034CA
:101EE400013400341034003400340134003410342C
:081EF400FF34FF34FF34003419
:061EFC00253464340034BB
:04400E00F22F000786
:00000001FF
