:040000008A15322B00
:10000800FF00030E830183160317D5000A08D700E3
:100018008A01700883120313A4007108A3007208F0
:10002800A2007308A1000B1D75282708F0002808F6
:10003800F1002908F2002A08F300F00A0319F10A6E
:100048000319F20A0319F30A7008A7007108A80037
:100058007208A9007308AA000B11063081002A084B
:10006800003C031D41282908003C031D412828089D
:10007800033C031D41282708E83C03185E2859085B
:10008800F0005A08F1005B08F2005C08F300F00A7F
:100098000319F10A0319F20A0319F30A7008D900BF
:1000A8007108DA007208DB007308DC00A701A801F8
:1000B800A901AA015C086806031D6C285B0867068D
:1000C800031D6C285A086606031D6C285908650626
:1000D800031D75280230860683168101831281016B
:1000E8008B012408F0002308F1002208F2002108FF
:1000F800F3008316031757088A00550E8300FF0E76
:040108007F0E09005D
:06010C00000000000800E5
:0E011200213083120313FD00FD0B8D28080021
:100120000F3083120313FC004730FD00FD0B9628AF
:0A013000FC0B9628000000000800F8
:10013A0083160317EF1BA528831203130611A82899
:10014A00831203130615831603176F1BB028831235
:10015A0003138611B3288312031386158316031714
:10016A00EF1ABB28831203130612BE288312031345
:10017A000616831603176F1AC628831203138612EC
:10018A00C928831203138616831603174518D12824
:10019A00831203138617D4288312031386130617B0
:1001AA008620061383160317EF19DF288312031319
:1001BA000611E228831203130615831603176F1913
:1001CA00EA28831203138611ED2883120313861576
:1001DA0083160317EF18F528831203130612F8285B
:1001EA00831203130616831603176F180029831246
:1001FA000313861203298312031386168316031721
:10020A0045180B298312031386170E298312031329
:10021A00861306178620061383160317451C17290B
:08022A0090201829892008002A
:1002320083120313FB01FA01F901F801A001730D06
:10024200F80D7408F8027508031C750FF902760898
:10025200031C760FFA027708031C770FFB020001DA
:10026200031C0130A002F30D0730FC00730DF80DE2
:10027200F90DFA0DFB0DA00D7408731C5229F8023A
:100282007508031C750FF9027608031C760FFA0233
:100292007708031C770FFB020001031C0130A00248
:1002A2006329F80775080318750FF907760803180C
:1002B200760FFA0777080318770FFB070001031878
:1002C2000130A007F30DFC0B3729720DF80DF90D63
:1002D200FA0DFB0DA00D7408731C8129F802750834
:1002E200031C750FF9027608031C760FFA027708D1
:1002F200031C770FFB020001031C0130A0029229AC
:10030200F80775080318750FF90776080318760FB2
:10031200FA0777080318770FFB070001031801306B
:10032200A007F20D0730FC00720DF80DF90DFA0D61
:10033200FB0DA00D7408721CB029F8027508031C8D
:10034200750FF9027608031C760FFA027708031C70
:10035200770FFB020001031C0130A002C129F8073C
:1003620075080318750FF90776080318760FFA0750
:1003720077080318770FFB07000103180130A00765
:10038200F20DFC0B9529710DF80DF90DFA0DFB0D0F
:10039200A00D7408721CDF29F8027508031C750F82
:1003A200F9027608031C760FFA027708031C770F0E
:1003B200FB020001031C0130A002F029F8077508B6
:1003C2000318750FF90776080318760FFA077708EE
:1003D2000318770FFB07000103180130A007F10D86
:1003E2000730FC00710DF80DF90DFA0DFB0DA00D93
:1003F2007408711C0E2AF8027508031C750FF902A5
:100402007608031C760FFA027708031C770FFB02AB
:100412000001031C0130A0021F2AF8077508031807
:10042200750FF90776080318760FFA07770803188D
:10043200770FFB07000103180130A007F10DFC0B39
:10044200F329700DF80DF90DFA0DFB0DA00D7408CE
:10045200711C3D2AF8027508031C750FF902760813
:10046200031C760FFA027708031C770FFB020001C8
:10047200031C0130A0024E2AF80775080318750FF5
:10048200F90776080318760FFA0777080318770F2B
:10049200FB07000103180130A007F00D0730FC0034
:1004A200700DF80DF90DFA0DFB0DA00D7408701CFE
:1004B2006C2AF8027508031C750FF9027608031CF2
:1004C200760FFA027708031C770FFB020001031C68
:1004D2000130A0027D2AF80775080318750FF90785
:1004E20076080318760FFA0777080318770FFB07C9
:1004F200000103180130A007F00DFC0B512A7018FF
:10050200902A7408F80775080318750FF90776081A
:100512000318760FFA0777080318770FFB0708000E
:10052200A32A803083160317E700B62AC030E700FB
:10053200B62A9430E700B62AD430E700B62A8030D3
:10054200E700B62A831603176708013A0319922AAD
:100552006708023A0319972A6708033A03199A2A85
:100562006708043A03199D2AA02A6803F000670865
:10057200F0077008E70045147008EF009D2083160D
:10058200031745106908EF009D20831603174514D1
:0205920008005F
:10059400831603139818D02A0000CA2A0317670881
:0805A400831203139900080003
:1005AC000E3083120313FD00FD0BDA2A0000080045
:1005BC0083160317EC01ED0100306D02031DE82AD0
:1005CC000A306C020318F32A6C086B078400203085
:1005DC008000EC0A0319ED0AE22A6C086B07840010
:1005EC0080010130EC02031CED036C086B07EE007C
:1005FC000A30F400F501F601F7016708F00068080D
:10060C00F1006908F2006A08F30019217808F0007B
:10061C007908F1007A08F2007B08F3003030F0071B
:10062C00831603176E088400700880000A30F400EB
:10063C00F501F601F7016708F0006808F100690898
:10064C00F2006A08F3001921700883160317E700FB
:10065C007108E8007208E9007308EA000030F40041
:10066C007306031D432B74087206031D432B740879
:10067C007106031D432B7008003A031D462B4B2BB0
:0C068C000130EC02031CED03FB2A080007
:10069800831203137008F100F001FD0171080319BA
:1006A80000347406F200F21BFD09F41F612BF409F3
:1006B800F40AF109F10AF41B772B0730FC007108E2
:1006C800F40C03186E2BFC0B642BF1010034F40CB2
:1006D8000318F107FD0DF10CF00CFC0B6B2BFD0D55
:1006E800F10CF00C00347D0DF10CF00C0034080016
:1006F8008316031745106708EF009D20831603171C
:04070800451408008C
:0E070C008316031754088A0053088200080061
:10071A009F2B803083160317DA00B22BC030DA0021
:10072A00B22B9430DA00B22BD430DA00B22B8030FC
:10073A00DA00B22B831603175A08013A03198E2BD3
:10074A005A08023A0319932B5A08033A0319962BAB
:10075A005A08043A0319992B9C2B5B03F0005A0898
:10076A00F0077008DA007008EF009D20831603175F
:10077A004510DD015D085C07840000080319CD2BD4
:10078A005D085C0784000008E7007C23DD0ABF2BB4
:04079A0045140800FA
:10079E00831203132230FC00F801F901FA01FB0168
:1007AE00FC030319052C0310FB0CFA0CF90CF80CC6
:1007BE00F30CF20CF10CF00C031CD72BFC030319F9
:1007CE00F72B7408F80775080318750FF9077608E4
:1007DE000318760FFA0777080318770FFB07DB2B42
:1007EE007408F80775080318750FF90776080318CB
:0E07FE00760FFA0777080318770FFB0708003D
:10080C00831603175A0883128D0083168C130C144D
:08081C0083120C08F000080033
:10082400831203176E08303EF10071080313B00001
:1008340071083A3A031D322C0317EE01EF01003020
:100844006D06031D272C00306C06031D302C03138A
:10085400E00101300317EC000030ED000313E00A5F
:1008640030082F3A031D4C2C09300317EE000030DA
:10087400EF0000306D06031D412C01306C06031D92
:100884004C2C0313E0036008003A031D4C2C03179F
:10089400EC01ED01D12C031701308316E7000D3074
:1008A400E800303083120313600783160317E9004E
:1008B40091220130E7000E30E80083126E08303ECA
:1008C4008316E9009122831203136008F0000A30B2
:1008D400F4004C2303176E0870070313E200710839
:1008E4000318013E03176F070313E300EB2C0230D8
:1008F40083160317E7000530E80030308312031332
:10090400600783160317E90091220230E7000630DE
:10091400E80083126E08303E8316E90091228312A8
:1009240003136008F0000A30F4004C2303176E0828
:1009340070070313E90071080318013E03176F07DA
:100944000313EA00EB2C023083160317E7000D3083
:10095400E800303083120313600783160317E9009D
:1009640091220230E7000E30E80083126E08303E18
:100974008316E9009122831203136008F0000A3001
:10098400F4004C2303176E0870070313EB0071087F
:100994000318013E03176F070313EC00EB2C003020
:1009A400831603175B06031DD92C01305A0603195D
:1009B4004D2C00305B06031DE12C02305A0603194E
:1009C400792C00305B06031DE92C03305A06031909
:1009D400A52C0230FB000430FC00BA30FD00FD0BF6
:0E09E400F12CFC0BF12CFB0BF12C0000080099
:1009F20083160317DC015A0884000008DB005B0839
:100A0200003A0319102D5B08E700CA228316031768
:100A1200DC0A5C085A0784000008DB00002D08008D
:100A220083120313FB01FA01F9018030F800F10C83
:100A3200F00C031C252D7408F90775080318750FAF
:100A4200FA070318FB0A0310F01F2D2D7408FA078A
:100A520075080318750FFB07FB0CFA0CF90CF80C60
:100A6200031C182D7B08F3007A08F2007908F100C4
:060A72007808F000080006
:100A7800C330831203139F05C0309F0083160317EA
:100A88005A08F000F00D7010F00D70107008831205
:100A980003139F0483165409F00070089F059F17DD
:100AA80083121F14D6229F149F1C5C2D0000582D02
:100AB8001F101E08F100F00183161E08F004003014
:040AC800F10408002D
:100ACC00831603178C1C6C2D0000662D5A0883129C
:100ADC008D0083165B0883128C0083168C130C1507
:100AEC000B08F0008B1355308D00AA308D008C1440
:0E0AFC00F01B822D8B13832D8B170C1108001D
:100B0A0083160317E101E2015A08E3005B08E400D7
:100B1A005C08E5005D08E60080305D06F000803084
:100B2A007002031DA22D00305C02031DA22D0030AD
:100B3A005B02031DA22D00305A020318CA2D013090
:100B4A00E1000030E200F401F501F601F7015A086C
:100B5A00F0005B08F1005C08F2005D08F30074081D
:100B6A00E3007508E4007608E5007708E6007008F7
:100B7A00E3027108031C710FE4027208031C720F6E
:100B8A00E5027308031C730FE6026308E7006408B2
:100B9A00E8006508E9006608EA005E08EB00DE2264
:100BAA000B30DF000030E0006008003C031DDF2D41
:100BBA005F08003C0318FA2D5F085E07F200013057
:100BCA005F02F0000030031C013E6002F100700871
:100BDA005E0784000008F000720884007008800034
:100BEA000130DF02031CE003D92D5E0884002030A7
:100BFA008000610862040319182EDF01E0015F0812
:100C0A005E0784000008203A031D0F2EDF0A03192D
:100C1A00E00A042E0130DF02031CE0035F085E07CE
:080C2A0084002D308000080059
:100C32000130831203138606031768088316DA004D
:100C4200831269088316DB0083126A088316DC00AC
:100C520083126B088316DD00B130DE008525B130CA
:100C6200DA00F9242D30DA00F924DA013C250030CB
:100C7200F200F300831203176808F00769080318EB
:100C8200690FF1076A0803186A0FF2076B08031865
:100C92006B0FF3077008E8007108E9007208EA00B8
:060CA2007308EB000800DE
:100CA8008230831603138100063083128100A0303E
:040CB8008B000800A5
:100CBC00013083160317DA000130DB00A030DC00B2
:100CCC008D230430FB000C30FC003330FD00FD0B99
:100CDC006D2EFC0B6D2EFB0B6D2E00000000DA014F
:100CEC00062470080313E500E601E701E8016D3006
:100CFC0083160317DA00F924CE30DA00F9248312B4
:100D0C000313650883160317DA00831203136608AE
:100D1C0083160317DB00831203136708831603176C
:100D2C00DC0083120313680883160317DD00C93037
:100D3C00DE008525C930DA00F9248312E601E701CB
:100D4C0001300313DD000030DE008316D501D6011F
:100D5C0006308312A700A801A901AA018312003052
:100D6C000317E71BFF30F000031368087002031D24
:100D7C00D22E00300317E71BFF30F0000313670877
:100D8C007002031DD22E660803176702031DD22EB4
:100D9C0003136508031766020318852F03135D08F8
:100DAC0083160317DA00062470080313A500A601A6
:100DBC00DD0A0319DE0A8316D50A0319D60A831233
:100DCC002708F0002808F1002908F2002A08F3008F
:100DDC00F00A0319F10A0319F20A0319F30A70084D
:100DEC00A7007108A8007208A9007308AA000030B7
:100DFC0083165606031D042F0630550603192A2F99
:100E0C0000305606031D0C2F0230550603192A2FED
:100E1C0002300317E7008312031327088316031706
:100E2C00E800303083120313250783160317E900FB
:100E3C0091228230FC00DD30FD00FD0B232FFC0BDA
:100E4C00232F00000000842F003003135606031DCF
:100E5C00312F02305506031D502F8230FC00DD303F
:100E6C00FD00FD0B372FFC0B372F0000000002306C
:100E7C000317E70083120313270883160317E800F0
:100E8C002E30E9009122013083120313DD02031C82
:100E9C00DE03842F83120317E60A0319E70A0130D5
:100EAC000313DD02031CDE03563083160317E70021
:100EBC007C23063083120313A700A801A901AA0101
:100ECC008316D501D6010B30FB002630FC005D30BB
:100EDC00FD00FD0B6F2FFC0B6F2FFB0B6F2F00001A
:100EEC00000001300317EF009D200130831603171B
:100EFC00DA000130DB00D730DC008D23B42E080083
:100F0C0083120313E101DF01E401AB01AC01A50184
:100F1C00A6010317EE01EF010313A701A801A90114
:100F2C00AA01B101B201B301B401D901DA01DB01AB
:100F3C00DC01EB01EC01E901EA01E201E3018316BA
:100F4C00EF018312E001B0010317E601E70103137F
:100F5C00E501E601E701E801DD01DE010317EC0123
:040F6C00ED0108008B
:100F7000FF3083160317C600FF30C700FF30C800DC
:100F8000FF30C330831203139F05C0309F008316C8
:100F90005409F00070089F059F1783121F14080062
:100FA00086238A110A128000840AD30A0319D40AFC
:080FB000F003031DD02F08001F
:100FB80083160313981690308312980083168717A8
:100FC800071383128C1EEB2F1A08F000E52F080078
:10100000013083160313EF0083120317EC01ED0187
:1010100001308316EF008A119D208A150130831656
:101020000317DA000130DB009030DC008A118D23D9
:101030008A158230FC00DD30FD00FD0B1D28FC0B05
:101040001D28000000000130DA000930DB00993073
:10105000DC008A118D238A158230FC00DD30FD0012
:10106000FD0B3028FC0B3028000000000230DA00B5
:101070000130DB00A930DC008A118D238A15823013
:10108000FC00DD30FD00FD0B4328FC0B4328000075
:1010900000000230DA000930DB00A130DC008A11E8
:1010A0008D238A158230FC00DD30FD00FD0B5628B3
:1010B000FC0B5628000000008312EE01EF0183169E
:1010C00003136F08043A031930298312071C7E2882
:1010D0006108003A031D7E280130E1000317EE0A83
:1010E0000319EF0A831603136F080317DA000030A1
:1010F000DA1BFF30DB008A1112248A1583120313D6
:10110000071887286108013A031D8728E101871C19
:1011100098285F08003A031D98288316EF0A0130CB
:101120008312DF00E0010317EE01EF01EC01ED0196
:10113000031387180B295F08013A031D0B29DF01F0
:10114000FD28831200306306031DA82800306206C4
:10115000031DBE28013083160317E7000D30E80099
:101160003030E9008A1191228A150130E7000E30F3
:10117000E8003030E9008A1191228A150B290030ED
:10118000831203136A06031DC72800306906031D76
:10119000DD28023083160317E7000530E800303001
:1011A000E9008A1191228A150230E7000630E80032
:1011B0003030E9008A1191228A150B290030831200
:1011C00003136C06031DE62800306B06031DFC2884
:1011D000023083160317E7000D30E8003030E900D5
:1011E0008A1191228A150230E7000E30E800303073
:1011F000E9008A1191228A150B29031383166F08BF
:10120000023A0319A1286F08033A0319BF286F088F
:10121000043A0319DE2803138312071D26296408E4
:10122000003A031D26290130E40001300317EE02C5
:10123000031CEF03831603136F080317DA00003053
:10124000DA1BFF30DB008A1112248A158312031384
:1012500007192F296408013A031D2F29E4015F288B
:1012600083126208F0006308F1006830F400013076
:10127000F5008A1111258A15700883160317D80006
:101280007108D900831203136908F0006A08F1009D
:101290003C30F4000030F5008A1111258A157008E1
:1012A00083160317580783120313E50083160317E9
:1012B00059080318013E710783120313E6006B08F7
:1012C000E5076C080318013EE6070030E700E80078
:0212D000080014
:1012D200831603130613861386120612861106114D
:1012E20083120613861306118611061286128A11BC
:1012F20090208A158A1190208A158A1190208A15C9
:101302000616861606178A1186208A1506138A1172
:1013120090208A1506178A1186208A1506138A11CB
:1013220090208A1506178A1186208A1506138A11BB
:1013320090208A15861206178A1186208A150613AE
:101342008A1190208A1506178A1186208A1506139B
:101352000612061506178A1186208A1506138A11A7
:1013620090208A150611861606178A1186208A157C
:101372000613861206178A1186208A1506138A1109
:1013820090208A1506178A1186208A15061386165A
:1013920006178A1186208A1506138A1190208A154B
:1013A200861206178A1186208A15061306158615D7
:1013B2000616861606178A1186208A1506138A11C2
:0C13C20090208A158316031745140800BC
:1013CE0083160317DA018A1106248A157008E600BF
:1013DE00E701E60DE70D6610E60DE70D66106808ED
:1013EE00F0006908F1006A08F2006B08F30088301B
:1013FE00F4001330F500F601F7018A11CF238A1598
:10140E0070080317E2007108E3007208E400730825
:10141E00E500FF30F4000330F500F601F7018A1104
:10142E0019218A1570080317E2007108E30072088B
:10143E00E4007308E500E830F4000330F500F6012F
:10144E00F7018A1119218A15700883160317D60021
:10145E000230E7000930E8007008303EE9008A11DA
:10146E0091228A158312E60A0319E70A6608831683
:10147E00DA005608DB008A1166258A153430FC0026
:10148E00F130FD00FD0B492AFC0B492A000000003B
:10149E002E30E7008A117C238A156430F400F501A2
:1014AE00F601F70183126208F0006308F100640888
:1014BE00F2006508F3008A1119218A150A30F4002A
:1014CE00F501F601F7018A1119218A157808F00045
:1014DE007908F1007A08F2007B08F3007008831691
:1014EE000317D6007008303EE7008A117C238A1558
:1014FE008312E60A0319E70A66088316DA0056080D
:10150E00DB008A1166258A153430FC00F130FD00AF
:10151E00FD0B8F2AFC0B8F2A000000000A30F4000E
:10152E00F501F601F70183126208F0006308F1007D
:10153E006408F2006508F3008A1119218A150A3031
:10154E00F400F501F601F7018A1119218A157808C0
:10155E00F0007908F1007A08F2007B08F3007008B9
:10156E0083160317D6007008303EE7008A117C23DD
:10157E008A158312E60A0319E70A66088316DA004B
:10158E005608DB008A1166258A153430FC00F130CE
:10159E00FD00FD0BD02AFC0BD02A000000000A3003
:1015AE00F400F501F601F70183126208F0006308FA
:1015BE00F1006408F2006508F3008A1119218A15FA
:1015CE007808F0007908F1007A08F2007B08F30041
:1015DE00700883160317D6007008303EE7008A1194
:1015EE007C238A158312E60A0319E70A6608831616
:1015FE00DA005608DB008A1166258A153430FC00A5
:10160E00F130FD00FD0B092BFC0B092B0000000037
:10161E005630E7008A117C238A15DA018A110624D6
:10162E008A1570088316D600F00A7008D600DA0103
:10163E007008DB008A1166258A151530FB004B30C9
:10164E00FC00BE30FD00FD0B2A2BFC0B2A2BFB0BE6
:06165E002A2B0000080029
:101664009026FF3083160317880089010D30031379
:101674008500873087000610861083128601333078
:101684008316990018158A11DC278A150230FB008D
:101694000430FC00BA30FD00FD0B4E2BFC0B4E2B2E
:1016A400FB0B4E2B0000533083160317DA008A110C
:1016B400F9248A1569210130EF008A119D208A15C9
:1016C4000C3083160317EF008A119D208A15013010
:1016D40083160317E7000130E8005030E9008A114F
:1016E40091228A157230E7008A117C238A156F30A3
:1016F400E7008A117C238A157930E7008A117C235C
:101704008A156530E7008A117C238A156330E70067
:101714008A117C238A157430E7008A117C238A1588
:101724006F30E7008A117C238A150630FB001330E2
:10173400FC00AD30FD00FD0B9D2BFC0B9D2BFB0B2A
:101744009D2B000000008A11B8278A158316031701
:10175400DA01DB018A1166258A1583120313071C3B
:10176400D62B6108003A031DD62B0130E10001306D
:10177400AB000030AC00023083160317DA000130EE
:10178400DB003530DC008A118D238A150630FB001E
:101794001330FC00AD30FD00FD0BCE2BFC0BCE2B2B
:1017A400FB0BCE2B00000000831203130718DF2B62
:1017B4006108013A031DDF2BE101871CE72B5F0859
:1017C400003A031DE72B0130DF00071D0C2C6408D1
:1017D400003A031D0C2C0130E4000230AB00003051
:1017E400AC00023083160317DA000130DB0044300A
:1017F400DC008A118D238A150630FB001330FC00AF
:10180400AD30FD00FD0B042CFC0B042CFB0B042C55
:1018140000000000831203130719152C6408013A11
:10182400031D152CE4015F08013A031D812D0030CE
:101834002C06031D1F2C01302B06031D2D2D00200B
:101844008A1154268A15013083160317EF008A1172
:101854009D208A15013083160317DA000330DB005C
:101864002830DC008A118D238A150230DA00073013
:10187400DB003430DC008A118D238A1583120313B4
:1018840068085C02031D502C67085B02031D502C82
:1018940066085A02031D502C650859020318672C68
:1018A4000030F0002A06031D612C70082906031D70
:1018B400612C03302806031D612C2708E73A031D19
:1018C400662C8A1119268A15402C03172530831695
:1018D400DA008A11F9248A151030DA008A11F92401
:1018E4008A15831268088316DA008312690883163E
:1018F400DB0083126A088316DC0083126B088316EC
:10190400DD00C930DE008A1185258A15C930DA0068
:101914008A11F9248A153830DA008A11F9248A15D3
:10192400831203136508F4006608F5006708F600DF
:101934006808F70003176808F0006908F1006A08EE
:10194400F2006B08F3008A1119218A157008031735
:10195400E8007108E9007208EA007308EB004D30F2
:101964008316DA008A11F9248A158312680883160B
:10197400DA00831269088316DB0083126A0883166F
:10198400DC0083126B088316DD00C930DE008A1187
:1019940085258A15C930DA008A11F9248A155F3041
:1019A400DA008A11F9248A154730DA008A11F924F9
:1019B4008A1583120313650883160317DA0083124A
:1019C4000313660883160317DB00831203136708E7
:1019D40083160317DC0083120313680883160317A6
:1019E400DD00C930DE008A1185258A15C930DA0088
:1019F4008A11F9248A153B30DA008A11F9248A15F0
:101A0400E7218312E801E901EA01EB0101308316C1
:101A1400EF008A119D208A15013083160317DA001E
:101A24000130DB003E30DC008A118D238A158230C0
:101A3400FC00DD30FD00FD0B1D2DFC0B1D2D0000F9
:101A440000000230DA000130DB00E630DC008A11ED
:101A54008D238A155F2D0030831203132C06031D7A
:101A6400352D02302B06031D5F2D8A115E268A1543
:101A7400013083160317EF008A119D208A15013067
:101A840083160317DA000130DB00BF30DC008A1153
:101A94008D238A158230FC00DD30FD00FD0B502DB6
:101AA400FC0B502D000000000230DA000130DB0096
:101AB400C530DC008A118D238A150630FB001330F3
:101AC400FC00AD30FD00FD0B652DFC0B652DFB0B03
:101AD400652D000000008A1186278A1501308316BF
:101AE400EF008A119D208A15013083160317DA004E
:101AF4000130DB00AF30DC008A118D238A15AF2B57
:021B0400822D30
:101D200025308400483083120313F000E43083161A
:101D30000317D3000D30D4008A11D0278A15A030A4
:101D400084000F30F0006C3083160317D3000E3080
:101D5000D4008A11D0278A156D3084000330F0003A
:101D6000FD3083160317D3000730D4008A11D02723
:101D70008A15AF3084004030F0002C3083160317F2
:101D8000D3000E30D4008A11D0278A151030831763
:101D900084005C30F000883083160317D3000D30C8
:101DA000D4008A11D0278A158313903083178400BA
:101DB0001130F000EC3083160317D3000730D40045
:101DC0008A11D0278A158313EF3084000130F00088
:101DD000033083160317D3000030D4008A11D027B4
:101DE0008A156C30831784000230F0008B30831624
:101DF0000317D3000E30D4008A11D0278A1583131D
:101E0000A130831784000830F0007B30831603175D
:101E1000D3000E30D4008A11D0278A1583136E3078
:101E2000831784000230F0008D3083160317D3002F
:101E30000E30D4008A11D0278A158313A930831756
:101E400084000830F000833083160317D3000E306F
:0C1E5000D4008A11D0278A1583130800E3
:020006000034C4
:100FD8005434693465346D3470346F343A342034A1
:020FE8000034D3
:100FEA004834723473345B34203420345D34003432
:060FFA000D340A3400343E
:101B100056346F346C34743461346A346534203430
:101B2000733469346E3420346434693476346934FF
:0A1B30006434693472343A3400342E
:061B3A000D340A340034F2
:101B40004D347534653473347434723465346134AF
:081B50006E3464346F3400347C
:081B58002E342E342E3400342B
:061B60000D340A340034CC
:061B66000D340A340034C6
:101B6C006D347534653473347434723465346F3455
:021B7C00003433
:0C1B7E0054346F34703465343A34003451
:101B8A0056346F346C34743461346A3465342034B6
:101B9A0064346934763469346434693464346F344F
:041BAA003A34003495
:061BAE000D340A3400347E
:081BB400003400340034003459
:041BBC0000340034BD
:081BC00000340034003400344D
:041BC80000340034B1
:081BCC00003400340034003441
:041BD40000340034A5
:061BD8000D340A34003454
:021BDE000034D1
:081BE00000340034003400342D
:101BE800533461346D3470346C3465342034623469
:0E1BF80079342034743469346D34653400342B
:101C060056346934653477342034733461346D3432
:0E1C160070346C346534733420342034003460
:0C1C24005334743461347234743400346E
:081C30000034003400340034DC
:041C38000034003440
:021C3C00003472
:021C3E00003470
:021C400000346E
:041C42000034003436
:021C4600003468
:081C48000034003400340034C4
:041C50000034003428
:041C54000034003424
:101C5800503472346F3479346534633474346F3487
:101C6800203449346E347434653467347234003443
:0C1C780076346934733474346134003401
:101C840063346F346D3470346C346534743461345B
:021C940000341A
:0C1C960054346F34703465343A34003438
:021CA2003034DC
:041CA40000340034D4
:101CA8004D346F3473347434723461346E34643444
:0E1CB8006F3420346434613474346134003489
:101CC60063346F346D3470346C34653474346F340B
:021CD6000034D8
:101CD8004D346F3473347434723461346E34643414
:0E1CE8006F3420346434613474346134003459
:101CF6005334653467345B34203420345D34003427
:101D06004D3469346E345B34203420345D34003411
:041D16000034003461
:041D1A00003400345D
:04400E00F22F000786
:00000001FF
